{
  "abi": [
    {
      "inputs": [],
      "stateMutability": "nonpayable",
      "type": "constructor"
    },
    {
      "anonymous": false,
      "inputs": [
        {
          "indexed": false,
          "internalType": "address",
          "name": "listingAddress",
          "type": "address"
        },
        {
          "indexed": false,
          "internalType": "address",
          "name": "tokenWanted",
          "type": "address"
        },
        {
          "indexed": false,
          "internalType": "uint256",
          "name": "amountWanted",
          "type": "uint256"
        }
      ],
      "name": "ListingCreated",
      "type": "event"
    },
    {
      "anonymous": false,
      "inputs": [
        {
          "indexed": true,
          "internalType": "address",
          "name": "previousOwner",
          "type": "address"
        },
        {
          "indexed": true,
          "internalType": "address",
          "name": "newOwner",
          "type": "address"
        }
      ],
      "name": "OwnershipTransferred",
      "type": "event"
    },
    {
      "inputs": [
        {
          "internalType": "address",
          "name": "user",
          "type": "address"
        }
      ],
      "name": "accrueDistributions",
      "outputs": [
        {
          "internalType": "uint256",
          "name": "",
          "type": "uint256"
        }
      ],
      "stateMutability": "nonpayable",
      "type": "function"
    },
    {
      "inputs": [],
      "name": "admin",
      "outputs": [
        {
          "internalType": "address",
          "name": "",
          "type": "address"
        }
      ],
      "stateMutability": "view",
      "type": "function"
    },
    {
      "inputs": [],
      "name": "arbitratorFee",
      "outputs": [
        {
          "internalType": "uint256",
          "name": "",
          "type": "uint256"
        }
      ],
      "stateMutability": "view",
      "type": "function"
    },
    {
      "inputs": [
        {
          "internalType": "address",
          "name": "_tokenWanted",
          "type": "address"
        },
        {
          "internalType": "uint256",
          "name": "_amountWanted",
          "type": "uint256"
        },
        {
          "internalType": "address",
          "name": "arbitrator",
          "type": "address"
        },
        {
          "internalType": "string",
          "name": "imageURL",
          "type": "string"
        },
        {
          "internalType": "string",
          "name": "name",
          "type": "string"
        },
        {
          "internalType": "string",
          "name": "desc",
          "type": "string"
        }
      ],
      "name": "createListing",
      "outputs": [
        {
          "internalType": "contract SingleItemListing",
          "name": "",
          "type": "address"
        }
      ],
      "stateMutability": "nonpayable",
      "type": "function"
    },
    {
      "inputs": [],
      "name": "distributionSpeed",
      "outputs": [
        {
          "internalType": "uint256",
          "name": "",
          "type": "uint256"
        }
      ],
      "stateMutability": "view",
      "type": "function"
    },
    {
      "inputs": [],
      "name": "getActiveListings",
      "outputs": [
        {
          "internalType": "contract SingleItemListing[]",
          "name": "",
          "type": "address[]"
        }
      ],
      "stateMutability": "view",
      "type": "function"
    },
    {
      "inputs": [],
      "name": "getLength",
      "outputs": [
        {
          "internalType": "uint256",
          "name": "",
          "type": "uint256"
        }
      ],
      "stateMutability": "view",
      "type": "function"
    },
    {
      "inputs": [
        {
          "internalType": "address",
          "name": "user",
          "type": "address"
        }
      ],
      "name": "getSingleUserListings",
      "outputs": [
        {
          "internalType": "contract SingleItemListing[]",
          "name": "",
          "type": "address[]"
        }
      ],
      "stateMutability": "view",
      "type": "function"
    },
    {
      "inputs": [
        {
          "internalType": "uint256",
          "name": "start",
          "type": "uint256"
        },
        {
          "internalType": "uint256",
          "name": "end",
          "type": "uint256"
        }
      ],
      "name": "getactiveListingsByRange",
      "outputs": [
        {
          "internalType": "contract SingleItemListing[]",
          "name": "",
          "type": "address[]"
        }
      ],
      "stateMutability": "view",
      "type": "function"
    },
    {
      "inputs": [
        {
          "internalType": "uint256",
          "name": "",
          "type": "uint256"
        }
      ],
      "name": "listings",
      "outputs": [
        {
          "internalType": "contract SingleItemListing",
          "name": "",
          "type": "address"
        }
      ],
      "stateMutability": "view",
      "type": "function"
    },
    {
      "inputs": [],
      "name": "owner",
      "outputs": [
        {
          "internalType": "address",
          "name": "",
          "type": "address"
        }
      ],
      "stateMutability": "view",
      "type": "function"
    },
    {
      "inputs": [],
      "name": "protocolFee",
      "outputs": [
        {
          "internalType": "uint256",
          "name": "",
          "type": "uint256"
        }
      ],
      "stateMutability": "view",
      "type": "function"
    },
    {
      "inputs": [],
      "name": "renounceOwnership",
      "outputs": [],
      "stateMutability": "nonpayable",
      "type": "function"
    },
    {
      "inputs": [
        {
          "internalType": "uint256",
          "name": "_newArbitratorFee",
          "type": "uint256"
        }
      ],
      "name": "setArbitratorFee",
      "outputs": [],
      "stateMutability": "nonpayable",
      "type": "function"
    },
    {
      "inputs": [
        {
          "internalType": "uint256",
          "name": "_newProtocolFee",
          "type": "uint256"
        }
      ],
      "name": "setProtocolFee",
      "outputs": [],
      "stateMutability": "nonpayable",
      "type": "function"
    },
    {
      "inputs": [
        {
          "internalType": "address",
          "name": "newAdmin",
          "type": "address"
        }
      ],
      "name": "transferAdmin",
      "outputs": [],
      "stateMutability": "nonpayable",
      "type": "function"
    },
    {
      "inputs": [
        {
          "internalType": "address",
          "name": "newOwner",
          "type": "address"
        }
      ],
      "name": "transferOwnership",
      "outputs": [],
      "stateMutability": "nonpayable",
      "type": "function"
    },
    {
      "inputs": [
        {
          "internalType": "address",
          "name": "",
          "type": "address"
        },
        {
          "internalType": "uint256",
          "name": "",
          "type": "uint256"
        }
      ],
      "name": "userListings",
      "outputs": [
        {
          "internalType": "contract SingleItemListing",
          "name": "",
          "type": "address"
        }
      ],
      "stateMutability": "view",
      "type": "function"
    },
    {
      "inputs": [
        {
          "internalType": "address",
          "name": "",
          "type": "address"
        }
      ],
      "name": "userRatingMapping",
      "outputs": [
        {
          "internalType": "uint256",
          "name": "userAverage",
          "type": "uint256"
        },
        {
          "internalType": "uint256",
          "name": "numOfReviews",
          "type": "uint256"
        }
      ],
      "stateMutability": "view",
      "type": "function"
    },
    {
      "inputs": [
        {
          "internalType": "uint256",
          "name": "review",
          "type": "uint256"
        },
        {
          "internalType": "contract SingleItemListing",
          "name": "listing",
          "type": "address"
        }
      ],
      "name": "writeReview",
      "outputs": [
        {
          "internalType": "uint256",
          "name": "",
          "type": "uint256"
        }
      ],
      "stateMutability": "nonpayable",
      "type": "function"
    }
  ],
  "bytecode": {
    "object": "0x60806040526102ee600155606460025534801561001b57600080fd5b506100253361003c565b600380546001600160a01b0319163317905561008c565b600080546001600160a01b038381166001600160a01b0319831681178455604051919092169283917f8be0079c531659141344cd1fd0a4f28419497f9722a3daafe3b4186f6b6457e09190a35050565b6135fc8061009b6000396000f3fe60806040523480156200001157600080fd5b5060043610620001455760003560e01c80638da5cb5b11620000bb578063d057b6e0116200007a578063d057b6e01462000275578063de74e57b14620002b5578063e1a7741514620002cc578063f2fde38b14620002e3578063f851a44014620002fa57600080fd5b80638da5cb5b1462000222578063b0e21e8a1462000234578063bbe7c8db146200023e578063be1c766b1462000255578063c45a18c4146200025e57600080fd5b806375829def116200010857806375829def14620001e0578063787dce3d14620001a457806386cfa7d314620001f757806387c35bc0146200020e5780638afaacaf146200021857600080fd5b806327c7e2d9146200014a57806345a57cb8146200017e57806347cef50b14620001a457806351aecca414620001bd578063715018a614620001d6575b600080fd5b620001616200015b36600462001159565b6200030e565b6040516001600160a01b0390911681526020015b60405180910390f35b620001956200018f3660046200121d565b62000427565b60405162000175919062001240565b620001bb620001b53660046200128f565b6200063f565b005b620001c760025481565b60405190815260200162000175565b620001bb6200067a565b620001bb620001f1366004620012a9565b620006b5565b6200016162000208366004620012d0565b620006ef565b6200019562000728565b620001c760045481565b6000546001600160a01b031662000161565b620001c760015481565b620001c76200024f366004620012a9565b620008f0565b600554620001c7565b620001c76200026f366004620012ff565b62000b74565b6200029f62000286366004620012a9565b6008602052600090815260409020805460019091015482565b6040805192835260208301919091520162000175565b62000161620002c63660046200128f565b62000ef5565b62000195620002dd366004620012a9565b62000f20565b620001bb620002f4366004620012a9565b62000f98565b60035462000161906001600160a01b031681565b600080338887896001546002548a8a8a436040516200032d906200108a565b620003429a9998979695949392919062001382565b604051809103906000f0801580156200035f573d6000803e3d6000fd5b506005805460018082019092557f036b6384b5eca791c62761152d0c79bb0604c104a5fb6f4eb0703f3154bb3db00180546001600160a01b038481166001600160a01b03199283168117909355336000908152600660209081526040808320805497880181558352918190209095018054909316841790925581519283528c16928201929092529081018990529091507ffda7019d416df41d8c16e492bfaf488e2980f8357164113d2620bf1b5ffbc5e19060600160405180910390a1979650505050505050565b606060006200043784846200142a565b67ffffffffffffffff811115620004525762000452620010ae565b6040519080825280602002602001820160405280156200047c578160200160208202803683370190505b5090506000845b84811015620006355760058181548110620004a257620004a262001444565b6000918252602091829020015460408051632c17870b60e11b815290516001600160a01b039092169263582f0e16926004808401938290030181865afa158015620004f1573d6000803e3d6000fd5b505050506040513d601f19601f820116820180604052508101906200051791906200145a565b8015620005ac57506005818154811062000535576200053562001444565b600091825260209182902001546040805163ecb70fb760e01b815290516001600160a01b039092169263ecb70fb7926004808401938290030181865afa15801562000584573d6000803e3d6000fd5b505050506040513d601f19601f82011682018060405250810190620005aa91906200145a565b155b15620006205760058181548110620005c857620005c862001444565b6000918252602090912001546001600160a01b03168383620005ea816200147e565b945081518110620005ff57620005ff62001444565b60200260200101906001600160a01b031690816001600160a01b0316815250505b806200062c816200147e565b91505062000483565b5090949350505050565b6000546001600160a01b03163314620006755760405162461bcd60e51b81526004016200066c906200149a565b60405180910390fd5b600155565b6000546001600160a01b03163314620006a75760405162461bcd60e51b81526004016200066c906200149a565b620006b360006200103a565b565b6003546001600160a01b03163314620006cd57600080fd5b600380546001600160a01b0319166001600160a01b0392909216919091179055565b600660205281600052604060002081815481106200070c57600080fd5b6000918252602090912001546001600160a01b03169150829050565b60055460609060009067ffffffffffffffff8111156200074c576200074c620010ae565b60405190808252806020026020018201604052801562000776578160200160208202803683370190505b5090506000805b600554811015620008e857600060058281548110620007a057620007a062001444565b6000918252602091829020015460408051632c17870b60e11b815290516001600160a01b039092169350839263582f0e16926004808401938290030181865afa158015620007f2573d6000803e3d6000fd5b505050506040513d601f19601f820116820180604052508101906200081891906200145a565b158015620008885750806001600160a01b031663ecb70fb76040518163ffffffff1660e01b8152600401602060405180830381865afa15801562000860573d6000803e3d6000fd5b505050506040513d601f19601f820116820180604052508101906200088691906200145a565b155b15620008d2578084846200089c816200147e565b955081518110620008b157620008b162001444565b60200260200101906001600160a01b031690816001600160a01b0316815250505b5080620008df816200147e565b9150506200077d565b509092915050565b600080620008fe3362000f20565b90506000805b825181101562000ae857600083828151811062000925576200092562001444565b60200260200101519050806001600160a01b031663ecb70fb76040518163ffffffff1660e01b8152600401602060405180830381865afa1580156200096e573d6000803e3d6000fd5b505050506040513d601f19601f820116820180604052508101906200099491906200145a565b801562000a035750806001600160a01b031663551f18136040518163ffffffff1660e01b8152600401602060405180830381865afa158015620009db573d6000803e3d6000fd5b505050506040513d601f19601f8201168201806040525081019062000a0191906200145a565b155b1562000ad257806001600160a01b0316637c81ed246040518163ffffffff1660e01b8152600401600060405180830381600087803b15801562000a4557600080fd5b505af115801562000a5a573d6000803e3d6000fd5b50505050806001600160a01b031663ca5f42826040518163ffffffff1660e01b8152600401602060405180830381865afa15801562000a9d573d6000803e3d6000fd5b505050506040513d601f19601f8201168201806040525081019062000ac39190620014cf565b62000acf9084620014e9565b92505b508062000adf816200147e565b91505062000904565b506001600160a01b038416600090815260086020526040812054908262000b116001846200142a565b62000b1d919062001504565b6001600160a01b03871660009081526007602052604081208054929350839290919062000b4c908490620014e9565b9091555050506001600160a01b03909416600090815260076020526040902054949350505050565b6000826001148062000b865750826002145b8062000b925750826003145b8062000b9e5750826004145b8062000baa5750826005145b62000c025760405162461bcd60e51b815260206004820152602160248201527f526576696577206973206e6f74206120636f6d70617469626c65206e756d62656044820152603960f91b60648201526084016200066c565b816001600160a01b0316634090613d6040518163ffffffff1660e01b8152600401602060405180830381865afa15801562000c41573d6000803e3d6000fd5b505050506040513d601f19601f8201168201806040525081019062000c6791906200145a565b1562000cc55760405162461bcd60e51b815260206004820152602660248201527f54686973206c697374696e672068617320616c7265616479206265656e2072656044820152651d9a595dd95960d21b60648201526084016200066c565b816001600160a01b031663d63fa1466040518163ffffffff1660e01b8152600401602060405180830381865afa15801562000d04573d6000803e3d6000fd5b505050506040513d601f19601f8201168201806040525081019062000d2a91906200145a565b1515600114801562000db15750816001600160a01b031663603daf9a6040518163ffffffff1660e01b8152600401602060405180830381865afa15801562000d76573d6000803e3d6000fd5b505050506040513d601f19601f8201168201806040525081019062000d9c919062001526565b6001600160a01b0316336001600160a01b0316145b62000dbb57600080fd5b6000826001600160a01b031663dbd0e1b66040518163ffffffff1660e01b8152600401602060405180830381865afa15801562000dfc573d6000803e3d6000fd5b505050506040513d601f19601f8201168201806040525081019062000e22919062001526565b6001600160a01b0381166000908152600860205260408120805460019091015492935091908662000e54838562001504565b62000e609190620014e9565b9050600062000e71836001620014e9565b9050866001600160a01b0316636a1c00dc6040518163ffffffff1660e01b8152600401600060405180830381600087803b15801562000eaf57600080fd5b505af115801562000ec4573d6000803e3d6000fd5b5050506001600160a01b03909516600090815260086020526040902091825560019091015550849250505092915050565b6005818154811062000f0657600080fd5b6000918252602090912001546001600160a01b0316905081565b6001600160a01b03811660009081526006602090815260409182902080548351818402810184019094528084526060939283018282801562000f8c57602002820191906000526020600020905b81546001600160a01b0316815260019091019060200180831162000f6d575b50505050509050919050565b6000546001600160a01b0316331462000fc55760405162461bcd60e51b81526004016200066c906200149a565b6001600160a01b0381166200102c5760405162461bcd60e51b815260206004820152602660248201527f4f776e61626c653a206e6577206f776e657220697320746865207a65726f206160448201526564647265737360d01b60648201526084016200066c565b62001037816200103a565b50565b600080546001600160a01b038381166001600160a01b0319831681178455604051919092169283917f8be0079c531659141344cd1fd0a4f28419497f9722a3daafe3b4186f6b6457e09190a35050565b612080806200154783390190565b6001600160a01b03811681146200103757600080fd5b634e487b7160e01b600052604160045260246000fd5b600082601f830112620010d657600080fd5b813567ffffffffffffffff80821115620010f457620010f4620010ae565b604051601f8301601f19908116603f011681019082821181831017156200111f576200111f620010ae565b816040528381528660208588010111156200113957600080fd5b836020870160208301376000602085830101528094505050505092915050565b60008060008060008060c087890312156200117357600080fd5b8635620011808162001098565b9550602087013594506040870135620011998162001098565b9350606087013567ffffffffffffffff80821115620011b757600080fd5b620011c58a838b01620010c4565b94506080890135915080821115620011dc57600080fd5b620011ea8a838b01620010c4565b935060a08901359150808211156200120157600080fd5b506200121089828a01620010c4565b9150509295509295509295565b600080604083850312156200123157600080fd5b50508035926020909101359150565b6020808252825182820181905260009190848201906040850190845b81811015620012835783516001600160a01b0316835292840192918401916001016200125c565b50909695505050505050565b600060208284031215620012a257600080fd5b5035919050565b600060208284031215620012bc57600080fd5b8135620012c98162001098565b9392505050565b60008060408385031215620012e457600080fd5b8235620012f18162001098565b946020939093013593505050565b600080604083850312156200131357600080fd5b823591506020830135620013278162001098565b809150509250929050565b6000815180845260005b818110156200135a576020818501810151868301820152016200133c565b818111156200136d576000602083870101525b50601f01601f19169290920160200192915050565b6001600160a01b038b811682528a8116602083015289166040820152606081018890526080810187905260a0810186905261014060c08201819052600090620013ce8382018862001332565b905082810360e0840152620013e4818762001332565b9050828103610100840152620013fb818662001332565b915050826101208301529b9a5050505050505050505050565b634e487b7160e01b600052601160045260246000fd5b6000828210156200143f576200143f62001414565b500390565b634e487b7160e01b600052603260045260246000fd5b6000602082840312156200146d57600080fd5b81518015158114620012c957600080fd5b60006001820162001493576200149362001414565b5060010190565b6020808252818101527f4f776e61626c653a2063616c6c6572206973206e6f7420746865206f776e6572604082015260600190565b600060208284031215620014e257600080fd5b5051919050565b60008219821115620014ff57620014ff62001414565b500190565b600081600019048311821515161562001521576200152162001414565b500290565b6000602082840312156200153957600080fd5b8151620012c9816200109856fe6101806040526000805461ffff191690556001805464ffffffffff60a01b191690553480156200002e57600080fd5b5060405162002080380380620020808339810160408190526200005191620002ea565b3360808190526001600160a01b038b811660a0528a811660c05260e089905289166101005261012087905261014086905260408051638da5cb5b60e01b81529051638da5cb5b916004808201926020929091908290030181865afa158015620000be573d6000803e3d6000fd5b505050506040513d601f19601f82011682018060405250810190620000e49190620003de565b600180546001600160a01b0319166001600160a01b03929092169190911790558351620001199060029060208701906200015a565b5082516200012f9060039060208601906200015a565b508151620001459060049060208501906200015a565b5061016052506200043f975050505050505050565b828054620001689062000403565b90600052602060002090601f0160209004810192826200018c5760008555620001d7565b82601f10620001a757805160ff1916838001178555620001d7565b82800160010185558215620001d7579182015b82811115620001d7578251825591602001919060010190620001ba565b50620001e5929150620001e9565b5090565b5b80821115620001e55760008155600101620001ea565b80516001600160a01b03811681146200021857600080fd5b919050565b634e487b7160e01b600052604160045260246000fd5b600082601f8301126200024557600080fd5b81516001600160401b03808211156200026257620002626200021d565b604051601f8301601f19908116603f011681019082821181831017156200028d576200028d6200021d565b81604052838152602092508683858801011115620002aa57600080fd5b600091505b83821015620002ce5785820183015181830184015290820190620002af565b83821115620002e05760008385830101525b9695505050505050565b6000806000806000806000806000806101408b8d0312156200030b57600080fd5b620003168b62000200565b99506200032660208c0162000200565b98506200033660408c0162000200565b60608c015160808d015160a08e015160c08f0151939b50919950975095506001600160401b03808211156200036a57600080fd5b620003788e838f0162000233565b955060e08d01519150808211156200038f57600080fd5b6200039d8e838f0162000233565b94506101008d0151915080821115620003b557600080fd5b50620003c48d828e0162000233565b9250506101208b015190509295989b9194979a5092959850565b600060208284031215620003f157600080fd5b620003fc8262000200565b9392505050565b600181811c908216806200041857607f821691505b6020821081036200043957634e487b7160e01b600052602260045260246000fd5b50919050565b60805160a05160c05160e05161010051610120516101405161016051611aae620005d2600039600081816102870152610f6d0152600081816102bc0152611077015260008181610411015261102601526000818161034f0152818161083601528181610a8a01528181610c5901528181610c9c01528181610d4201528181610fd2015261126e01526000818161045f01528181610b4c01528181610d910152818161100501528181611056015281816110b60152611356015260008181610328015281816105650152818161067701528181610733015281816107ba015281816108c301528181610b2401528181610d6a015281816111120152818161118f0152818161123f0152818161132e015261148e0152600081816102050152818161048e01528181610587015281816106990152818161075501528181610a5701528181610afc01528181610ba801528181610beb01528181610d1d01528181611306015281816113d9015261146c015260008181610438015281816109200152818161096301526109f30152611aae6000f3fe608060405234801561001057600080fd5b50600436106101fb5760003560e01c80637c81ed241161011a578063c45a0155116100ad578063ea8a1af01161007c578063ea8a1af0146104b2578063ec10f769146104ba578063ecb70fb7146104cc578063f851a440146104d9578063fa2b9a68146104ec57600080fd5b8063c45a015514610433578063ca5f42821461045a578063d63fa14614610481578063dbd0e1b61461048c57600080fd5b8063a6f2ae3a116100e9578063a6f2ae3a146103dd578063a95c0798146103e5578063aa9a0912146103f9578063b0e21e8a1461040c57600080fd5b80637c81ed24146103a6578063879f9c96146103ae578063a403eb2d146103c0578063a60f6811146103c857600080fd5b8063601a6838116101925780636cc6cde1116101615780636cc6cde11461034a5780636e9960c3146103715780637150d8ae14610379578063789015831461039257600080fd5b8063601a6838146102fa578063603daf9a146103045780636a1c00dc1461031b5780636a3b83551461032357600080fd5b80634e989a4c116101ce5780634e989a4c1461028257806351aecca4146102b7578063551f1813146102de578063582f0e16146102f257600080fd5b806308551a53146102005780630b8712c3146102445780631183dbed1461025c5780634090613d14610270575b600080fd5b6102277f000000000000000000000000000000000000000000000000000000000000000081565b6040516001600160a01b0390911681526020015b60405180910390f35b61024c610500565b604051901515815260200161023b565b60015461024c90600160a01b900460ff1681565b600154600160b81b900460ff1661024c565b6102a97f000000000000000000000000000000000000000000000000000000000000000081565b60405190815260200161023b565b6102a97f000000000000000000000000000000000000000000000000000000000000000081565b60015461024c90600160c01b900460ff1681565b61024c610798565b61030261082b565b005b6000546201000090046001600160a01b0316610227565b610302610915565b6102277f000000000000000000000000000000000000000000000000000000000000000081565b6102277f000000000000000000000000000000000000000000000000000000000000000081565b61022761095f565b600054610227906201000090046001600160a01b031681565b60015461024c90600160b81b900460ff1681565b6103026109e8565b60005461024c90610100900460ff1681565b610302610a32565b6103d0610d03565b60405161023b9190611810565b610302610f96565b60015461024c90600160b01b900460ff1681565b6102a96104073660046118d5565b6113ad565b6102a97f000000000000000000000000000000000000000000000000000000000000000081565b6102277f000000000000000000000000000000000000000000000000000000000000000081565b6102a97f000000000000000000000000000000000000000000000000000000000000000081565b60005460ff1661024c565b7f0000000000000000000000000000000000000000000000000000000000000000610227565b6103026113ce565b600154600160c01b900460ff1661024c565b60005461024c9060ff1681565b600154610227906001600160a01b031681565b60015461024c90600160a81b900460ff1681565b60018054600091600160a01b90910460ff16151514801561052e575060018054600160a81b900460ff161515145b8015610547575060005460ff6101009091041615156001145b15610616576040516370a0823160e01b8152306004820152610602907f0000000000000000000000000000000000000000000000000000000000000000907f0000000000000000000000000000000000000000000000000000000000000000906001600160a01b038316906370a08231906024015b602060405180830381865afa1580156105d9573d6000803e3d6000fd5b505050506040513d601f19601f820116820180604052508101906105fd9190611901565b611512565b506000805460ff1916600190811790915590565b60018054600160a01b900460ff161515148015610640575060018054600160b01b900460ff161515145b8015610659575060005460ff6101009091041615156001145b156106d2576040516370a0823160e01b8152306004820152610602907f0000000000000000000000000000000000000000000000000000000000000000907f0000000000000000000000000000000000000000000000000000000000000000906001600160a01b038316906370a08231906024016105bc565b60018054600160a81b900460ff1615151480156106fc575060018054600160b01b900460ff161515145b8015610715575060005460ff6101009091041615156001145b1561078e576040516370a0823160e01b8152306004820152610602907f0000000000000000000000000000000000000000000000000000000000000000907f0000000000000000000000000000000000000000000000000000000000000000906001600160a01b038316906370a08231906024016105bc565b5060005460ff1690565b6040516370a0823160e01b815230600482015260009081906001600160a01b037f000000000000000000000000000000000000000000000000000000000000000016906370a0823190602401602060405180830381865afa158015610801573d6000803e3d6000fd5b505050506040513d601f19601f820116820180604052508101906108259190611901565b11905090565b336001600160a01b037f0000000000000000000000000000000000000000000000000000000000000000161461086057600080fd5b600154600160b01b900460ff161580156108845750600154600160a81b900460ff16155b61088d57600080fd5b60005460ff6101009091041615156001146108a757600080fd5b6000546040516370a0823160e01b8152306004820152610906917f0000000000000000000000000000000000000000000000000000000000000000916001600160a01b03620100009092048216918316906370a08231906024016105bc565b6000805460ff19166001179055565b336001600160a01b037f0000000000000000000000000000000000000000000000000000000000000000161461094a57600080fd5b6001805460ff60b81b1916600160b81b179055565b60007f00000000000000000000000000000000000000000000000000000000000000006001600160a01b0316638da5cb5b6040518163ffffffff1660e01b8152600401602060405180830381865afa1580156109bf573d6000803e3d6000fd5b505050506040513d601f19601f820116820180604052508101906109e3919061191a565b905090565b336001600160a01b037f00000000000000000000000000000000000000000000000000000000000000001614610a1d57600080fd5b6001805460ff60c01b1916600160c01b179055565b6000546201000090046001600160a01b0316331480610a795750336001600160a01b037f000000000000000000000000000000000000000000000000000000000000000016145b80610aac5750336001600160a01b037f000000000000000000000000000000000000000000000000000000000000000016145b610ab557600080fd5b6000546201000090046001600160a01b03163303610b9e576001805460ff60a81b1916600160a81b179055600054604080516001600160a01b0362010000909304831681527f0000000000000000000000000000000000000000000000000000000000000000831660208201527f0000000000000000000000000000000000000000000000000000000000000000909216908201527f000000000000000000000000000000000000000000000000000000000000000060608201527fd1adf00770f4f2c244fc8d5cb5241db27fe0b93caefb089fdd86309256788a8a9060800160405180910390a15b6001600160a01b037f0000000000000000000000000000000000000000000000000000000000000000163303610c4f576001805460ff60a01b1916600160a01b90811791829055604080517f00000000000000000000000000000000000000000000000000000000000000006001600160a01b031681529190920460ff16151560208201527f2cd5f1b7c9746d6c7f12ba3cac10bb2ea2dd5ed664c19ecfbc25cb962b0d73fd910160405180910390a15b6001600160a01b037f0000000000000000000000000000000000000000000000000000000000000000163303610d01576001805460ff60b01b1916600160b01b90811791829055604080517f00000000000000000000000000000000000000000000000000000000000000006001600160a01b031681529190920460ff16151560208201527fae19fbd29a5cc1375bcc48ea65089a54f7bfdff538fbcf979a0d75c072c324af91015b60405180910390a15b565b610d0b611754565b610d13611754565b6001600160a01b037f0000000000000000000000000000000000000000000000000000000000000000811682527f0000000000000000000000000000000000000000000000000000000000000000811660208301527f00000000000000000000000000000000000000000000000000000000000000001660408201527f0000000000000000000000000000000000000000000000000000000000000000606082015260038054610dc290611943565b80601f0160208091040260200160405190810160405280929190818152602001828054610dee90611943565b8015610e3b5780601f10610e1057610100808354040283529160200191610e3b565b820191906000526020600020905b815481529060010190602001808311610e1e57829003601f168201915b50505050508160a0018190525060028054610e5590611943565b80601f0160208091040260200160405190810160405280929190818152602001828054610e8190611943565b8015610ece5780601f10610ea357610100808354040283529160200191610ece565b820191906000526020600020905b815481529060010190602001808311610eb157829003601f168201915b5050505050816080018190525060048054610ee890611943565b80601f0160208091040260200160405190810160405280929190818152602001828054610f1490611943565b8015610f615780601f10610f3657610100808354040283529160200191610f61565b820191906000526020600020905b815481529060010190602001808311610f4457829003601f168201915b505050505060c08201527f000000000000000000000000000000000000000000000000000000000000000060e0820152919050565b600054610100900460ff1615610fab57600080fd5b6000546201000090046001600160a01b03163314801590610ff55750336001600160a01b037f00000000000000000000000000000000000000000000000000000000000000001614155b610ffe57600080fd5b600061104d7f00000000000000000000000000000000000000000000000000000000000000007f00000000000000000000000000000000000000000000000000000000000000006127106113ad565b9050600061109e7f00000000000000000000000000000000000000000000000000000000000000007f00000000000000000000000000000000000000000000000000000000000000006127106113ad565b905060006110ac8284611993565b905060006110da827f00000000000000000000000000000000000000000000000000000000000000006119ab565b6000805462010000600160b01b03191633620100008102919091179091556040516323b872dd60e01b81529192506001600160a01b037f000000000000000000000000000000000000000000000000000000000000000016916323b872dd9161114991309086906004016119c2565b6020604051808303816000875af1158015611168573d6000803e3d6000fd5b505050506040513d601f19601f8201168201806040525081019061118c91906119e6565b507f00000000000000000000000000000000000000000000000000000000000000006001600160a01b03166323b872dd336111c561095f565b876040518463ffffffff1660e01b81526004016111e4939291906119c2565b6020604051808303816000875af1158015611203573d6000803e3d6000fd5b505050506040513d601f19601f8201168201806040525081019061122791906119e6565b506040516323b872dd60e01b81526001600160a01b037f000000000000000000000000000000000000000000000000000000000000000016906323b872dd906112989033907f00000000000000000000000000000000000000000000000000000000000000009088906004016119c2565b6020604051808303816000875af11580156112b7573d6000803e3d6000fd5b505050506040513d601f19601f820116820180604052508101906112db91906119e6565b506000805461ff0019166101001790819055604080516001600160a01b0362010000909304831681527f0000000000000000000000000000000000000000000000000000000000000000831660208201527f0000000000000000000000000000000000000000000000000000000000000000909216908201527f000000000000000000000000000000000000000000000000000000000000000060608201527f93f7aa200698f7035ffdcd4e6bc9dd9caf7853d59c1465ed93ac8827b6ff5c229060800160405180910390a150505050565b6000816113ba8486611a08565b6113c49190611a27565b90505b9392505050565b336001600160a01b037f0000000000000000000000000000000000000000000000000000000000000000161461140357600080fd5b60005460ff161561141357600080fd5b600054610100900460ff161561142857600080fd5b6000805460ff191660011790556040516370a0823160e01b81523060048201527ffb87149f10f1ffda9c1df55fae0d68fe643c8be0790eec2f859205ed312cd68b907f0000000000000000000000000000000000000000000000000000000000000000907f0000000000000000000000000000000000000000000000000000000000000000906001600160a01b038216906370a0823190602401602060405180830381865afa1580156114df573d6000803e3d6000fd5b505050506040513d601f19601f820116820180604052508101906115039190611901565b604051610cf8939291906119c2565b604080516001600160a01b038416602482015260448082018490528251808303909101815260649091019091526020810180516001600160e01b031663a9059cbb60e01b179052611564908490611569565b505050565b60006115be826040518060400160405280602081526020017f5361666545524332303a206c6f772d6c6576656c2063616c6c206661696c6564815250856001600160a01b03166116409092919063ffffffff16565b80519091501561156457808060200190518101906115dc91906119e6565b6115645760405162461bcd60e51b815260206004820152602a60248201527f5361666545524332303a204552433230206f7065726174696f6e20646964206e6044820152691bdd081cdd58d8d9595960b21b60648201526084015b60405180910390fd5b60606113c48484600085856001600160a01b0385163b6116a25760405162461bcd60e51b815260206004820152601d60248201527f416464726573733a2063616c6c20746f206e6f6e2d636f6e74726163740000006044820152606401611637565b600080866001600160a01b031685876040516116be9190611a49565b60006040518083038185875af1925050503d80600081146116fb576040519150601f19603f3d011682016040523d82523d6000602084013e611700565b606091505b509150915061171082828661171b565b979650505050505050565b6060831561172a5750816113c7565b82511561173a5782518084602001fd5b8160405162461bcd60e51b81526004016116379190611a65565b60405180610100016040528060006001600160a01b0316815260200160006001600160a01b0316815260200160006001600160a01b0316815260200160008152602001606081526020016060815260200160608152602001600081525090565b60005b838110156117cf5781810151838201526020016117b7565b838111156117de576000848401525b50505050565b600081518084526117fc8160208601602086016117b4565b601f01601f19169290920160200192915050565b6020815261182a6020820183516001600160a01b03169052565b6000602083015161184660408401826001600160a01b03169052565b5060408301516001600160a01b0381166060840152506060830151608083015260808301516101008060a08501526118826101208501836117e4565b915060a0850151601f19808685030160c08701526118a084836117e4565b935060c08701519150808685030160e0870152506118be83826117e4565b92505060e085015181850152508091505092915050565b6000806000606084860312156118ea57600080fd5b505081359360208301359350604090920135919050565b60006020828403121561191357600080fd5b5051919050565b60006020828403121561192c57600080fd5b81516001600160a01b03811681146113c757600080fd5b600181811c9082168061195757607f821691505b60208210810361197757634e487b7160e01b600052602260045260246000fd5b50919050565b634e487b7160e01b600052601160045260246000fd5b600082198211156119a6576119a661197d565b500190565b6000828210156119bd576119bd61197d565b500390565b6001600160a01b039384168152919092166020820152604081019190915260600190565b6000602082840312156119f857600080fd5b815180151581146113c757600080fd5b6000816000190483118215151615611a2257611a2261197d565b500290565b600082611a4457634e487b7160e01b600052601260045260246000fd5b500490565b60008251611a5b8184602087016117b4565b9190910192915050565b6020815260006113c760208301846117e456fea26469706673582212209ee0ccb52c068799a7732c82168ecd2bfa68e7394c3fa80853386281b7ba1db564736f6c634300080d0033a2646970667358221220514ff051208cb56b8ae4b31a49ab0e7894a4ed621a28c65b2d09e9245bf41c5664736f6c634300080d0033",
    "linkReferences": {}
  }
}