{
  "abi": [
    {
      "inputs": [],
      "stateMutability": "nonpayable",
      "type": "constructor"
    },
    {
      "anonymous": false,
      "inputs": [
        {
          "indexed": false,
          "internalType": "address",
          "name": "listingAddress",
          "type": "address"
        },
        {
          "indexed": false,
          "internalType": "address",
          "name": "tokenWanted",
          "type": "address"
        },
        {
          "indexed": false,
          "internalType": "uint256",
          "name": "amountWanted",
          "type": "uint256"
        }
      ],
      "name": "ListingCreated",
      "type": "event"
    },
    {
      "anonymous": false,
      "inputs": [
        {
          "indexed": true,
          "internalType": "address",
          "name": "previousOwner",
          "type": "address"
        },
        {
          "indexed": true,
          "internalType": "address",
          "name": "newOwner",
          "type": "address"
        }
      ],
      "name": "OwnershipTransferred",
      "type": "event"
    },
    {
      "inputs": [
        {
          "internalType": "address",
          "name": "user",
          "type": "address"
        }
      ],
      "name": "accrueDistributions",
      "outputs": [
        {
          "internalType": "uint256",
          "name": "",
          "type": "uint256"
        }
      ],
      "stateMutability": "nonpayable",
      "type": "function"
    },
    {
      "inputs": [],
      "name": "admin",
      "outputs": [
        {
          "internalType": "address",
          "name": "",
          "type": "address"
        }
      ],
      "stateMutability": "view",
      "type": "function"
    },
    {
      "inputs": [],
      "name": "arbitratorFee",
      "outputs": [
        {
          "internalType": "uint256",
          "name": "",
          "type": "uint256"
        }
      ],
      "stateMutability": "view",
      "type": "function"
    },
    {
      "inputs": [
        {
          "internalType": "address",
          "name": "_tokenWanted",
          "type": "address"
        },
        {
          "internalType": "uint256",
          "name": "_amountWanted",
          "type": "uint256"
        },
        {
          "internalType": "address",
          "name": "arbitrator",
          "type": "address"
        },
        {
          "internalType": "string",
          "name": "imageURL",
          "type": "string"
        },
        {
          "internalType": "string",
          "name": "name",
          "type": "string"
        },
        {
          "internalType": "string",
          "name": "desc",
          "type": "string"
        }
      ],
      "name": "createListing",
      "outputs": [
        {
          "internalType": "contract SingleItemListing",
          "name": "",
          "type": "address"
        }
      ],
      "stateMutability": "nonpayable",
      "type": "function"
    },
    {
      "inputs": [],
      "name": "distributionSpeed",
      "outputs": [
        {
          "internalType": "uint256",
          "name": "",
          "type": "uint256"
        }
      ],
      "stateMutability": "view",
      "type": "function"
    },
    {
      "inputs": [],
      "name": "getActiveListings",
      "outputs": [
        {
          "internalType": "contract SingleItemListing[]",
          "name": "",
          "type": "address[]"
        }
      ],
      "stateMutability": "view",
      "type": "function"
    },
    {
      "inputs": [],
      "name": "getLength",
      "outputs": [
        {
          "internalType": "uint256",
          "name": "",
          "type": "uint256"
        }
      ],
      "stateMutability": "view",
      "type": "function"
    },
    {
      "inputs": [
        {
          "internalType": "address",
          "name": "user",
          "type": "address"
        }
      ],
      "name": "getSingleUserListings",
      "outputs": [
        {
          "internalType": "contract SingleItemListing[]",
          "name": "",
          "type": "address[]"
        }
      ],
      "stateMutability": "view",
      "type": "function"
    },
    {
      "inputs": [
        {
          "internalType": "uint256",
          "name": "start",
          "type": "uint256"
        },
        {
          "internalType": "uint256",
          "name": "end",
          "type": "uint256"
        }
      ],
      "name": "getactiveListingsByRange",
      "outputs": [
        {
          "internalType": "contract SingleItemListing[]",
          "name": "",
          "type": "address[]"
        }
      ],
      "stateMutability": "view",
      "type": "function"
    },
    {
      "inputs": [
        {
          "internalType": "uint256",
          "name": "",
          "type": "uint256"
        }
      ],
      "name": "listings",
      "outputs": [
        {
          "internalType": "contract SingleItemListing",
          "name": "",
          "type": "address"
        }
      ],
      "stateMutability": "view",
      "type": "function"
    },
    {
      "inputs": [],
      "name": "owner",
      "outputs": [
        {
          "internalType": "address",
          "name": "",
          "type": "address"
        }
      ],
      "stateMutability": "view",
      "type": "function"
    },
    {
      "inputs": [],
      "name": "protocolFee",
      "outputs": [
        {
          "internalType": "uint256",
          "name": "",
          "type": "uint256"
        }
      ],
      "stateMutability": "view",
      "type": "function"
    },
    {
      "inputs": [],
      "name": "renounceOwnership",
      "outputs": [],
      "stateMutability": "nonpayable",
      "type": "function"
    },
    {
      "inputs": [
        {
          "internalType": "uint256",
          "name": "_newArbitratorFee",
          "type": "uint256"
        }
      ],
      "name": "setArbitratorFee",
      "outputs": [],
      "stateMutability": "nonpayable",
      "type": "function"
    },
    {
      "inputs": [
        {
          "internalType": "uint256",
          "name": "_newProtocolFee",
          "type": "uint256"
        }
      ],
      "name": "setProtocolFee",
      "outputs": [],
      "stateMutability": "nonpayable",
      "type": "function"
    },
    {
      "inputs": [
        {
          "internalType": "address",
          "name": "newAdmin",
          "type": "address"
        }
      ],
      "name": "transferAdmin",
      "outputs": [],
      "stateMutability": "nonpayable",
      "type": "function"
    },
    {
      "inputs": [
        {
          "internalType": "address",
          "name": "newOwner",
          "type": "address"
        }
      ],
      "name": "transferOwnership",
      "outputs": [],
      "stateMutability": "nonpayable",
      "type": "function"
    },
    {
      "inputs": [
        {
          "internalType": "address",
          "name": "",
          "type": "address"
        },
        {
          "internalType": "uint256",
          "name": "",
          "type": "uint256"
        }
      ],
      "name": "userListings",
      "outputs": [
        {
          "internalType": "contract SingleItemListing",
          "name": "",
          "type": "address"
        }
      ],
      "stateMutability": "view",
      "type": "function"
    },
    {
      "inputs": [
        {
          "internalType": "address",
          "name": "",
          "type": "address"
        }
      ],
      "name": "userRatingMapping",
      "outputs": [
        {
          "internalType": "uint256",
          "name": "userAverage",
          "type": "uint256"
        },
        {
          "internalType": "uint256",
          "name": "numOfReviews",
          "type": "uint256"
        }
      ],
      "stateMutability": "view",
      "type": "function"
    },
    {
      "inputs": [
        {
          "internalType": "address",
          "name": "user",
          "type": "address"
        },
        {
          "internalType": "uint256",
          "name": "review",
          "type": "uint256"
        },
        {
          "internalType": "contract SingleItemListing",
          "name": "listing",
          "type": "address"
        }
      ],
      "name": "writeReview",
      "outputs": [
        {
          "internalType": "uint256",
          "name": "",
          "type": "uint256"
        }
      ],
      "stateMutability": "nonpayable",
      "type": "function"
    }
  ],
  "bytecode": {
    "object": "0x60806040526102ee600155606460025534801561001b57600080fd5b506100253361003c565b600380546001600160a01b0319163317905561008c565b600080546001600160a01b038381166001600160a01b0319831681178455604051919092169283917f8be0079c531659141344cd1fd0a4f28419497f9722a3daafe3b4186f6b6457e09190a35050565b6132958061009b6000396000f3fe60806040523480156200001157600080fd5b5060043610620001455760003560e01c80638da5cb5b11620000bb578063d057b6e0116200007a578063d057b6e01462000275578063de74e57b14620002b5578063e1a7741514620002cc578063f2fde38b14620002e3578063f851a44014620002fa57600080fd5b80638da5cb5b146200022257806395c19d3d1462000234578063b0e21e8a146200024b578063bbe7c8db1462000255578063be1c766b146200026c57600080fd5b806375829def116200010857806375829def14620001e0578063787dce3d14620001a457806386cfa7d314620001f757806387c35bc0146200020e5780638afaacaf146200021857600080fd5b806327c7e2d9146200014a57806345a57cb8146200017e57806347cef50b14620001a457806351aecca414620001bd578063715018a614620001d6575b600080fd5b620001616200015b36600462000f99565b6200030e565b6040516001600160a01b0390911681526020015b60405180910390f35b620001956200018f3660046200105d565b62000425565b60405162000175919062001080565b620001bb620001b5366004620010cf565b6200063d565b005b620001c760025481565b60405190815260200162000175565b620001bb62000678565b620001bb620001f1366004620010e9565b620006b3565b620001616200020836600462001110565b620006ed565b6200019562000726565b620001c760045481565b6000546001600160a01b031662000161565b620001c7620002453660046200113f565b620008ee565b620001c760015481565b620001c762000266366004620010e9565b62000aec565b600554620001c7565b6200029f62000286366004620010e9565b6008602052600090815260409020805460019091015482565b6040805192835260208301919091520162000175565b62000161620002c6366004620010cf565b62000d35565b62000195620002dd366004620010e9565b62000d60565b620001bb620002f4366004620010e9565b62000dd8565b60035462000161906001600160a01b031681565b600080338887896001546002548a8a8a6040516200032c9062000eca565b6200034099989796959493929190620011d6565b604051809103906000f0801580156200035d573d6000803e3d6000fd5b506005805460018082019092557f036b6384b5eca791c62761152d0c79bb0604c104a5fb6f4eb0703f3154bb3db00180546001600160a01b038481166001600160a01b03199283168117909355336000908152600660209081526040808320805497880181558352918190209095018054909316841790925581519283528c16928201929092529081018990529091507ffda7019d416df41d8c16e492bfaf488e2980f8357164113d2620bf1b5ffbc5e19060600160405180910390a1979650505050505050565b6060600062000435848462001275565b67ffffffffffffffff81111562000450576200045062000eee565b6040519080825280602002602001820160405280156200047a578160200160208202803683370190505b5090506000845b84811015620006335760058181548110620004a057620004a06200128f565b6000918252602091829020015460408051632c17870b60e11b815290516001600160a01b039092169263582f0e16926004808401938290030181865afa158015620004ef573d6000803e3d6000fd5b505050506040513d601f19601f82011682018060405250810190620005159190620012a5565b8015620005aa5750600581815481106200053357620005336200128f565b600091825260209182902001546040805163ecb70fb760e01b815290516001600160a01b039092169263ecb70fb7926004808401938290030181865afa15801562000582573d6000803e3d6000fd5b505050506040513d601f19601f82011682018060405250810190620005a89190620012a5565b155b156200061e5760058181548110620005c657620005c66200128f565b6000918252602090912001546001600160a01b03168383620005e881620012c9565b945081518110620005fd57620005fd6200128f565b60200260200101906001600160a01b031690816001600160a01b0316815250505b806200062a81620012c9565b91505062000481565b5090949350505050565b6000546001600160a01b03163314620006735760405162461bcd60e51b81526004016200066a90620012e5565b60405180910390fd5b600155565b6000546001600160a01b03163314620006a55760405162461bcd60e51b81526004016200066a90620012e5565b620006b1600062000e7a565b565b6003546001600160a01b03163314620006cb57600080fd5b600380546001600160a01b0319166001600160a01b0392909216919091179055565b600660205281600052604060002081815481106200070a57600080fd5b6000918252602090912001546001600160a01b03169150829050565b60055460609060009067ffffffffffffffff8111156200074a576200074a62000eee565b60405190808252806020026020018201604052801562000774578160200160208202803683370190505b5090506000805b600554811015620008e6576000600582815481106200079e576200079e6200128f565b6000918252602091829020015460408051632c17870b60e11b815290516001600160a01b039092169350839263582f0e16926004808401938290030181865afa158015620007f0573d6000803e3d6000fd5b505050506040513d601f19601f82011682018060405250810190620008169190620012a5565b158015620008865750806001600160a01b031663ecb70fb76040518163ffffffff1660e01b8152600401602060405180830381865afa1580156200085e573d6000803e3d6000fd5b505050506040513d601f19601f82011682018060405250810190620008849190620012a5565b155b15620008d0578084846200089a81620012c9565b955081518110620008af57620008af6200128f565b60200260200101906001600160a01b031690816001600160a01b0316815250505b5080620008dd81620012c9565b9150506200077b565b509092915050565b60008260011480620009005750826002145b806200090c5750826003145b80620009185750826004145b80620009245750826005145b6200097c5760405162461bcd60e51b815260206004820152602160248201527f526576696577206973206e6f74206120636f6d70617469626c65206e756d62656044820152603960f91b60648201526084016200066a565b816001600160a01b031663d63fa1466040518163ffffffff1660e01b8152600401602060405180830381865afa158015620009bb573d6000803e3d6000fd5b505050506040513d601f19601f82011682018060405250810190620009e19190620012a5565b1515600114801562000a685750816001600160a01b031663603daf9a6040518163ffffffff1660e01b8152600401602060405180830381865afa15801562000a2d573d6000803e3d6000fd5b505050506040513d601f19601f8201168201806040525081019062000a5391906200131a565b6001600160a01b0316336001600160a01b0316145b62000a7257600080fd5b6001600160a01b0384166000908152600860205260408120805460019091015490918562000aa183856200133a565b62000aad91906200135c565b9050600062000abe8360016200135c565b6001600160a01b03989098166000908152600860205260409020918255506001019590955550919392505050565b60008062000afa3362000d60565b90506000805b825181101562000ce457600083828151811062000b215762000b216200128f565b60200260200101519050806001600160a01b031663ecb70fb76040518163ffffffff1660e01b8152600401602060405180830381865afa15801562000b6a573d6000803e3d6000fd5b505050506040513d601f19601f8201168201806040525081019062000b909190620012a5565b801562000bff5750806001600160a01b031663551f18136040518163ffffffff1660e01b8152600401602060405180830381865afa15801562000bd7573d6000803e3d6000fd5b505050506040513d601f19601f8201168201806040525081019062000bfd9190620012a5565b155b1562000cce57806001600160a01b0316637c81ed246040518163ffffffff1660e01b8152600401600060405180830381600087803b15801562000c4157600080fd5b505af115801562000c56573d6000803e3d6000fd5b50505050806001600160a01b031663ca5f42826040518163ffffffff1660e01b8152600401602060405180830381865afa15801562000c99573d6000803e3d6000fd5b505050506040513d601f19601f8201168201806040525081019062000cbf919062001377565b62000ccb90846200135c565b92505b508062000cdb81620012c9565b91505062000b00565b506001600160a01b0384166000908152600760205260408120805483929062000d0f9084906200135c565b9091555050506001600160a01b0390921660009081526007602052604090205492915050565b6005818154811062000d4657600080fd5b6000918252602090912001546001600160a01b0316905081565b6001600160a01b03811660009081526006602090815260409182902080548351818402810184019094528084526060939283018282801562000dcc57602002820191906000526020600020905b81546001600160a01b0316815260019091019060200180831162000dad575b50505050509050919050565b6000546001600160a01b0316331462000e055760405162461bcd60e51b81526004016200066a90620012e5565b6001600160a01b03811662000e6c5760405162461bcd60e51b815260206004820152602660248201527f4f776e61626c653a206e6577206f776e657220697320746865207a65726f206160448201526564647265737360d01b60648201526084016200066a565b62000e778162000e7a565b50565b600080546001600160a01b038381166001600160a01b0319831681178455604051919092169283917f8be0079c531659141344cd1fd0a4f28419497f9722a3daafe3b4186f6b6457e09190a35050565b611ece806200139283390190565b6001600160a01b038116811462000e7757600080fd5b634e487b7160e01b600052604160045260246000fd5b600082601f83011262000f1657600080fd5b813567ffffffffffffffff8082111562000f345762000f3462000eee565b604051601f8301601f19908116603f0116810190828211818310171562000f5f5762000f5f62000eee565b8160405283815286602085880101111562000f7957600080fd5b836020870160208301376000602085830101528094505050505092915050565b60008060008060008060c0878903121562000fb357600080fd5b863562000fc08162000ed8565b955060208701359450604087013562000fd98162000ed8565b9350606087013567ffffffffffffffff8082111562000ff757600080fd5b620010058a838b0162000f04565b945060808901359150808211156200101c57600080fd5b6200102a8a838b0162000f04565b935060a08901359150808211156200104157600080fd5b506200105089828a0162000f04565b9150509295509295509295565b600080604083850312156200107157600080fd5b50508035926020909101359150565b6020808252825182820181905260009190848201906040850190845b81811015620010c35783516001600160a01b0316835292840192918401916001016200109c565b50909695505050505050565b600060208284031215620010e257600080fd5b5035919050565b600060208284031215620010fc57600080fd5b8135620011098162000ed8565b9392505050565b600080604083850312156200112457600080fd5b8235620011318162000ed8565b946020939093013593505050565b6000806000606084860312156200115557600080fd5b8335620011628162000ed8565b92506020840135915060408401356200117b8162000ed8565b809150509250925092565b6000815180845260005b81811015620011ae5760208185018101518683018201520162001190565b81811115620011c1576000602083870101525b50601f01601f19169290920160200192915050565b6001600160a01b038a81168252898116602083015288166040820152606081018790526080810186905260a0810185905261012060c08201819052600090620012228382018762001186565b905082810360e084015262001238818662001186565b90508281036101008401526200124f818562001186565b9c9b505050505050505050505050565b634e487b7160e01b600052601160045260246000fd5b6000828210156200128a576200128a6200125f565b500390565b634e487b7160e01b600052603260045260246000fd5b600060208284031215620012b857600080fd5b815180151581146200110957600080fd5b600060018201620012de57620012de6200125f565b5060010190565b6020808252818101527f4f776e61626c653a2063616c6c6572206973206e6f7420746865206f776e6572604082015260600190565b6000602082840312156200132d57600080fd5b8151620011098162000ed8565b60008160001904831182151516156200135757620013576200125f565b500290565b600082198211156200137257620013726200125f565b500190565b6000602082840312156200138a57600080fd5b505191905056fe6101606040526000805461ffff191690556001805464ffffffffff60a01b191690553480156200002e57600080fd5b5060405162001ece38038062001ece8339810160408190526200005191620002e5565b3360808190526001600160a01b038a811660a05289811660c05260e088905288166101005261012086905261014085905260408051638da5cb5b60e01b81529051638da5cb5b916004808201926020929091908290030181865afa158015620000be573d6000803e3d6000fd5b505050506040513d601f19601f82011682018060405250810190620000e49190620003ce565b600180546001600160a01b0319166001600160a01b039290921691909117905582516200011990600290602086019062000155565b5081516200012f90600390602085019062000155565b5080516200014590600490602084019062000155565b505050505050505050506200042f565b8280546200016390620003f3565b90600052602060002090601f016020900481019282620001875760008555620001d2565b82601f10620001a257805160ff1916838001178555620001d2565b82800160010185558215620001d2579182015b82811115620001d2578251825591602001919060010190620001b5565b50620001e0929150620001e4565b5090565b5b80821115620001e05760008155600101620001e5565b80516001600160a01b03811681146200021357600080fd5b919050565b634e487b7160e01b600052604160045260246000fd5b600082601f8301126200024057600080fd5b81516001600160401b03808211156200025d576200025d62000218565b604051601f8301601f19908116603f0116810190828211818310171562000288576200028862000218565b81604052838152602092508683858801011115620002a557600080fd5b600091505b83821015620002c95785820183015181830184015290820190620002aa565b83821115620002db5760008385830101525b9695505050505050565b60008060008060008060008060006101208a8c0312156200030557600080fd5b620003108a620001fb565b98506200032060208b01620001fb565b97506200033060408b01620001fb565b60608b015160808c015160a08d015160c08e0151939a50919850965094506001600160401b03808211156200036457600080fd5b620003728d838e016200022e565b945060e08c01519150808211156200038957600080fd5b620003978d838e016200022e565b93506101008c0151915080821115620003af57600080fd5b50620003be8c828d016200022e565b9150509295985092959850929598565b600060208284031215620003e157600080fd5b620003ec82620001fb565b9392505050565b600181811c908216806200040857607f821691505b6020821081036200042957634e487b7160e01b600052602260045260246000fd5b50919050565b60805160a05160c05160e05161010051610120516101405161192c620005a2600039600081816102540152610f3e0152600081816103b70152610eed0152600081816102f5015281816107b601528181610a0a01528181610bd901528181610c1c01528181610cc20152610e9901526000818161040501528181610acc01528181610d1101528181610ecc01528181610f1d01528181610f7d01526111fa0152600081816102ce015281816104e5015281816105f7015281816106b30152818161073a0152818161084301528181610aa401528181610cea01528181610fbb0152818161103a015281816110d5015281816111d101526113320152600081816101e40152818161050701528181610619015281816106d5015281816109d701528181610a7c01528181610b2801528181610b6b01528181610c9d015281816111a90152818161127d01526113100152600081816103de015281816108a0015281816108e30152610973015261192c6000f3fe608060405234801561001057600080fd5b50600436106101da5760003560e01c8063879f9c9611610104578063c45a0155116100a2578063ec10f76911610071578063ec10f7691461043a578063ecb70fb71461044c578063f851a44014610459578063fa2b9a681461046c57600080fd5b8063c45a0155146103d9578063ca5f428214610400578063d63fa14614610427578063ea8a1af01461043257600080fd5b8063a6f2ae3a116100de578063a6f2ae3a14610383578063a95c07981461038b578063aa9a09121461039f578063b0e21e8a146103b257600080fd5b8063879f9c9614610354578063a403eb2d14610366578063a60f68111461036e57600080fd5b8063603daf9a1161017c5780636e9960c31161014b5780636e9960c3146103175780637150d8ae1461031f57806378901583146103385780637c81ed241461034c57600080fd5b8063603daf9a146102aa5780636a1c00dc146102c15780636a3b8355146102c95780636cc6cde1146102f057600080fd5b806351aecca4116101b857806351aecca41461024f578063551f181314610284578063582f0e1614610298578063601a6838146102a057600080fd5b806308551a53146101df5780630b8712c3146102235780631183dbed1461023b575b600080fd5b6102067f000000000000000000000000000000000000000000000000000000000000000081565b6040516001600160a01b0390911681526020015b60405180910390f35b61022b610480565b604051901515815260200161021a565b60015461022b90600160a01b900460ff1681565b6102767f000000000000000000000000000000000000000000000000000000000000000081565b60405190815260200161021a565b60015461022b90600160c01b900460ff1681565b61022b610718565b6102a86107ab565b005b6000546201000090046001600160a01b0316610206565b6102a8610895565b6102067f000000000000000000000000000000000000000000000000000000000000000081565b6102067f000000000000000000000000000000000000000000000000000000000000000081565b6102066108df565b600054610206906201000090046001600160a01b031681565b60015461022b90600160b81b900460ff1681565b6102a8610968565b60005461022b90610100900460ff1681565b6102a86109b2565b610376610c83565b60405161021a91906116ac565b6102a8610e5d565b60015461022b90600160b01b900460ff1681565b6102766103ad366004611753565b611251565b6102767f000000000000000000000000000000000000000000000000000000000000000081565b6102067f000000000000000000000000000000000000000000000000000000000000000081565b6102767f000000000000000000000000000000000000000000000000000000000000000081565b60005460ff1661022b565b6102a8611272565b600154600160c01b900460ff1661022b565b60005461022b9060ff1681565b600154610206906001600160a01b031681565b60015461022b90600160a81b900460ff1681565b60018054600091600160a01b90910460ff1615151480156104ae575060018054600160a81b900460ff161515145b80156104c7575060005460ff6101009091041615156001145b15610596576040516370a0823160e01b8152306004820152610582907f0000000000000000000000000000000000000000000000000000000000000000907f0000000000000000000000000000000000000000000000000000000000000000906001600160a01b038316906370a08231906024015b602060405180830381865afa158015610559573d6000803e3d6000fd5b505050506040513d601f19601f8201168201806040525081019061057d919061177f565b6113b6565b506000805460ff1916600190811790915590565b60018054600160a01b900460ff1615151480156105c0575060018054600160b01b900460ff161515145b80156105d9575060005460ff6101009091041615156001145b15610652576040516370a0823160e01b8152306004820152610582907f0000000000000000000000000000000000000000000000000000000000000000907f0000000000000000000000000000000000000000000000000000000000000000906001600160a01b038316906370a082319060240161053c565b60018054600160a81b900460ff16151514801561067c575060018054600160b01b900460ff161515145b8015610695575060005460ff6101009091041615156001145b1561070e576040516370a0823160e01b8152306004820152610582907f0000000000000000000000000000000000000000000000000000000000000000907f0000000000000000000000000000000000000000000000000000000000000000906001600160a01b038316906370a082319060240161053c565b5060005460ff1690565b6040516370a0823160e01b815230600482015260009081906001600160a01b037f000000000000000000000000000000000000000000000000000000000000000016906370a0823190602401602060405180830381865afa158015610781573d6000803e3d6000fd5b505050506040513d601f19601f820116820180604052508101906107a5919061177f565b11905090565b336001600160a01b037f000000000000000000000000000000000000000000000000000000000000000016146107e057600080fd5b600154600160b01b900460ff161580156108045750600154600160a81b900460ff16155b61080d57600080fd5b60005460ff61010090910416151560011461082757600080fd5b6000546040516370a0823160e01b8152306004820152610886917f0000000000000000000000000000000000000000000000000000000000000000916001600160a01b03620100009092048216918316906370a082319060240161053c565b6000805460ff19166001179055565b336001600160a01b037f000000000000000000000000000000000000000000000000000000000000000016146108ca57600080fd5b6001805460ff60b81b1916600160b81b179055565b60007f00000000000000000000000000000000000000000000000000000000000000006001600160a01b0316638da5cb5b6040518163ffffffff1660e01b8152600401602060405180830381865afa15801561093f573d6000803e3d6000fd5b505050506040513d601f19601f820116820180604052508101906109639190611798565b905090565b336001600160a01b037f0000000000000000000000000000000000000000000000000000000000000000161461099d57600080fd5b6001805460ff60c01b1916600160c01b179055565b6000546201000090046001600160a01b03163314806109f95750336001600160a01b037f000000000000000000000000000000000000000000000000000000000000000016145b80610a2c5750336001600160a01b037f000000000000000000000000000000000000000000000000000000000000000016145b610a3557600080fd5b6000546201000090046001600160a01b03163303610b1e576001805460ff60a81b1916600160a81b179055600054604080516001600160a01b0362010000909304831681527f0000000000000000000000000000000000000000000000000000000000000000831660208201527f0000000000000000000000000000000000000000000000000000000000000000909216908201527f000000000000000000000000000000000000000000000000000000000000000060608201527fd1adf00770f4f2c244fc8d5cb5241db27fe0b93caefb089fdd86309256788a8a9060800160405180910390a15b6001600160a01b037f0000000000000000000000000000000000000000000000000000000000000000163303610bcf576001805460ff60a01b1916600160a01b90811791829055604080517f00000000000000000000000000000000000000000000000000000000000000006001600160a01b031681529190920460ff16151560208201527f2cd5f1b7c9746d6c7f12ba3cac10bb2ea2dd5ed664c19ecfbc25cb962b0d73fd910160405180910390a15b6001600160a01b037f0000000000000000000000000000000000000000000000000000000000000000163303610c81576001805460ff60b01b1916600160b01b90811791829055604080517f00000000000000000000000000000000000000000000000000000000000000006001600160a01b031681529190920460ff16151560208201527fae19fbd29a5cc1375bcc48ea65089a54f7bfdff538fbcf979a0d75c072c324af91015b60405180910390a15b565b610c8b6115f8565b610c936115f8565b6001600160a01b037f0000000000000000000000000000000000000000000000000000000000000000811682527f0000000000000000000000000000000000000000000000000000000000000000811660208301527f00000000000000000000000000000000000000000000000000000000000000001660408201527f0000000000000000000000000000000000000000000000000000000000000000606082015260028054610d42906117c1565b80601f0160208091040260200160405190810160405280929190818152602001828054610d6e906117c1565b8015610dbb5780601f10610d9057610100808354040283529160200191610dbb565b820191906000526020600020905b815481529060010190602001808311610d9e57829003601f168201915b5050505050816080018190525060048054610dd5906117c1565b80601f0160208091040260200160405190810160405280929190818152602001828054610e01906117c1565b8015610e4e5780601f10610e2357610100808354040283529160200191610e4e565b820191906000526020600020905b815481529060010190602001808311610e3157829003601f168201915b505050505060c0820152919050565b600054610100900460ff1615610e7257600080fd5b6000546201000090046001600160a01b03163314801590610ebc5750336001600160a01b037f00000000000000000000000000000000000000000000000000000000000000001614155b610ec557600080fd5b6000610f147f00000000000000000000000000000000000000000000000000000000000000007f0000000000000000000000000000000000000000000000000000000000000000612710611251565b90506000610f657f00000000000000000000000000000000000000000000000000000000000000007f0000000000000000000000000000000000000000000000000000000000000000612710611251565b90506000610f738284611811565b90506000610fa1827f0000000000000000000000000000000000000000000000000000000000000000611829565b6040516323b872dd60e01b81529091506001600160a01b037f000000000000000000000000000000000000000000000000000000000000000016906323b872dd90610ff490339030908690600401611840565b6020604051808303816000875af1158015611013573d6000803e3d6000fd5b505050506040513d601f19601f820116820180604052508101906110379190611864565b507f00000000000000000000000000000000000000000000000000000000000000006001600160a01b03166323b872dd336110706108df565b876040518463ffffffff1660e01b815260040161108f93929190611840565b6020604051808303816000875af11580156110ae573d6000803e3d6000fd5b505050506040513d601f19601f820116820180604052508101906110d29190611864565b507f00000000000000000000000000000000000000000000000000000000000000006001600160a01b03166323b872dd3361110b6108df565b866040518463ffffffff1660e01b815260040161112a93929190611840565b6020604051808303816000875af1158015611149573d6000803e3d6000fd5b505050506040513d601f19601f8201168201806040525081019061116d9190611864565b506000805462010000338102610100600160b01b031990921691909117610100179182905560408051919092046001600160a01b0390811682527f0000000000000000000000000000000000000000000000000000000000000000811660208301527f000000000000000000000000000000000000000000000000000000000000000016918101919091527f000000000000000000000000000000000000000000000000000000000000000060608201527f93f7aa200698f7035ffdcd4e6bc9dd9caf7853d59c1465ed93ac8827b6ff5c229060800160405180910390a150505050565b60008161125e8486611886565b61126891906118a5565b90505b9392505050565b336001600160a01b037f000000000000000000000000000000000000000000000000000000000000000016146112a757600080fd5b60005460ff16156112b757600080fd5b600054610100900460ff16156112cc57600080fd5b6000805460ff191660011790556040516370a0823160e01b81523060048201527ffb87149f10f1ffda9c1df55fae0d68fe643c8be0790eec2f859205ed312cd68b907f0000000000000000000000000000000000000000000000000000000000000000907f0000000000000000000000000000000000000000000000000000000000000000906001600160a01b038216906370a0823190602401602060405180830381865afa158015611383573d6000803e3d6000fd5b505050506040513d601f19601f820116820180604052508101906113a7919061177f565b604051610c7893929190611840565b604080516001600160a01b038416602482015260448082018490528251808303909101815260649091019091526020810180516001600160e01b031663a9059cbb60e01b17905261140890849061140d565b505050565b6000611462826040518060400160405280602081526020017f5361666545524332303a206c6f772d6c6576656c2063616c6c206661696c6564815250856001600160a01b03166114e49092919063ffffffff16565b80519091501561140857808060200190518101906114809190611864565b6114085760405162461bcd60e51b815260206004820152602a60248201527f5361666545524332303a204552433230206f7065726174696f6e20646964206e6044820152691bdd081cdd58d8d9595960b21b60648201526084015b60405180910390fd5b60606112688484600085856001600160a01b0385163b6115465760405162461bcd60e51b815260206004820152601d60248201527f416464726573733a2063616c6c20746f206e6f6e2d636f6e747261637400000060448201526064016114db565b600080866001600160a01b0316858760405161156291906118c7565b60006040518083038185875af1925050503d806000811461159f576040519150601f19603f3d011682016040523d82523d6000602084013e6115a4565b606091505b50915091506115b48282866115bf565b979650505050505050565b606083156115ce57508161126b565b8251156115de5782518084602001fd5b8160405162461bcd60e51b81526004016114db91906118e3565b6040518060e0016040528060006001600160a01b0316815260200160006001600160a01b0316815260200160006001600160a01b03168152602001600081526020016060815260200160608152602001606081525090565b60005b8381101561166b578181015183820152602001611653565b8381111561167a576000848401525b50505050565b60008151808452611698816020860160208601611650565b601f01601f19169290920160200192915050565b60208152600060018060a01b038084511660208401528060208501511660408401525060408301516116e960608401826001600160a01b03169052565b5060608301516080830152608083015160e060a084015261170e610100840182611680565b905060a0840151601f19808584030160c086015261172c8383611680565b925060c08601519150808584030160e08601525061174a8282611680565b95945050505050565b60008060006060848603121561176857600080fd5b505081359360208301359350604090920135919050565b60006020828403121561179157600080fd5b5051919050565b6000602082840312156117aa57600080fd5b81516001600160a01b038116811461126b57600080fd5b600181811c908216806117d557607f821691505b6020821081036117f557634e487b7160e01b600052602260045260246000fd5b50919050565b634e487b7160e01b600052601160045260246000fd5b60008219821115611824576118246117fb565b500190565b60008282101561183b5761183b6117fb565b500390565b6001600160a01b039384168152919092166020820152604081019190915260600190565b60006020828403121561187657600080fd5b8151801515811461126b57600080fd5b60008160001904831182151516156118a0576118a06117fb565b500290565b6000826118c257634e487b7160e01b600052601260045260246000fd5b500490565b600082516118d9818460208701611650565b9190910192915050565b60208152600061126b602083018461168056fea26469706673582212203e31cda3563d0730d69968fcc6da6e0941921a67d3db7d56243c65ec3b7acd8664736f6c634300080d0033a2646970667358221220216107bf106d22efbf3fa2545aca211a318b22f71bdf25271ae9b143a3ce7ff264736f6c634300080d0033",
    "linkReferences": {}
  }
}