{
  "abi": [
    {
      "inputs": [],
      "stateMutability": "nonpayable",
      "type": "constructor"
    },
    {
      "anonymous": false,
      "inputs": [
        {
          "indexed": false,
          "internalType": "address",
          "name": "listingAddress",
          "type": "address"
        },
        {
          "indexed": false,
          "internalType": "address",
          "name": "tokenWanted",
          "type": "address"
        },
        {
          "indexed": false,
          "internalType": "uint256",
          "name": "amountWanted",
          "type": "uint256"
        }
      ],
      "name": "ListingCreated",
      "type": "event"
    },
    {
      "inputs": [
        {
          "internalType": "address",
          "name": "user",
          "type": "address"
        }
      ],
      "name": "accrueDistributions",
      "outputs": [
        {
          "internalType": "uint256",
          "name": "",
          "type": "uint256"
        }
      ],
      "stateMutability": "nonpayable",
      "type": "function"
    },
    {
      "inputs": [],
      "name": "admin",
      "outputs": [
        {
          "internalType": "address",
          "name": "",
          "type": "address"
        }
      ],
      "stateMutability": "view",
      "type": "function"
    },
    {
      "inputs": [],
      "name": "arbitratorFee",
      "outputs": [
        {
          "internalType": "uint256",
          "name": "",
          "type": "uint256"
        }
      ],
      "stateMutability": "view",
      "type": "function"
    },
    {
      "inputs": [
        {
          "internalType": "contract SingleItemListing",
          "name": "listing",
          "type": "address"
        },
        {
          "internalType": "address",
          "name": "seller",
          "type": "address"
        }
      ],
      "name": "checkListingOriginatedHere",
      "outputs": [
        {
          "internalType": "bool",
          "name": "",
          "type": "bool"
        }
      ],
      "stateMutability": "view",
      "type": "function"
    },
    {
      "inputs": [
        {
          "internalType": "address",
          "name": "_tokenWanted",
          "type": "address"
        },
        {
          "internalType": "uint256",
          "name": "_amountWanted",
          "type": "uint256"
        },
        {
          "internalType": "address",
          "name": "arbitrator",
          "type": "address"
        },
        {
          "internalType": "string",
          "name": "imageURL",
          "type": "string"
        },
        {
          "internalType": "string",
          "name": "name",
          "type": "string"
        },
        {
          "internalType": "string",
          "name": "desc",
          "type": "string"
        }
      ],
      "name": "createListing",
      "outputs": [
        {
          "internalType": "contract SingleItemListing",
          "name": "",
          "type": "address"
        }
      ],
      "stateMutability": "nonpayable",
      "type": "function"
    },
    {
      "inputs": [],
      "name": "distributionSpeed",
      "outputs": [
        {
          "internalType": "uint256",
          "name": "",
          "type": "uint256"
        }
      ],
      "stateMutability": "view",
      "type": "function"
    },
    {
      "inputs": [],
      "name": "getActiveListings",
      "outputs": [
        {
          "internalType": "contract SingleItemListing[]",
          "name": "",
          "type": "address[]"
        }
      ],
      "stateMutability": "view",
      "type": "function"
    },
    {
      "inputs": [
        {
          "internalType": "address",
          "name": "user",
          "type": "address"
        }
      ],
      "name": "getSingleUserListings",
      "outputs": [
        {
          "internalType": "contract SingleItemListing[]",
          "name": "",
          "type": "address[]"
        }
      ],
      "stateMutability": "view",
      "type": "function"
    },
    {
      "inputs": [
        {
          "internalType": "address",
          "name": "user",
          "type": "address"
        }
      ],
      "name": "getSingleUserPurchases",
      "outputs": [
        {
          "internalType": "contract SingleItemListing[]",
          "name": "",
          "type": "address[]"
        }
      ],
      "stateMutability": "view",
      "type": "function"
    },
    {
      "inputs": [
        {
          "internalType": "uint256",
          "name": "",
          "type": "uint256"
        }
      ],
      "name": "listings",
      "outputs": [
        {
          "internalType": "contract SingleItemListing",
          "name": "",
          "type": "address"
        }
      ],
      "stateMutability": "view",
      "type": "function"
    },
    {
      "inputs": [],
      "name": "owner",
      "outputs": [
        {
          "internalType": "address",
          "name": "",
          "type": "address"
        }
      ],
      "stateMutability": "view",
      "type": "function"
    },
    {
      "inputs": [],
      "name": "protocolFee",
      "outputs": [
        {
          "internalType": "uint256",
          "name": "",
          "type": "uint256"
        }
      ],
      "stateMutability": "view",
      "type": "function"
    },
    {
      "inputs": [
        {
          "internalType": "uint256",
          "name": "_newArbitratorFee",
          "type": "uint256"
        }
      ],
      "name": "setArbitratorFee",
      "outputs": [],
      "stateMutability": "nonpayable",
      "type": "function"
    },
    {
      "inputs": [
        {
          "internalType": "uint256",
          "name": "_newProtocolFee",
          "type": "uint256"
        }
      ],
      "name": "setProtocolFee",
      "outputs": [],
      "stateMutability": "nonpayable",
      "type": "function"
    },
    {
      "inputs": [
        {
          "internalType": "address",
          "name": "newAdmin",
          "type": "address"
        }
      ],
      "name": "transferAdmin",
      "outputs": [],
      "stateMutability": "nonpayable",
      "type": "function"
    },
    {
      "inputs": [
        {
          "internalType": "address",
          "name": "",
          "type": "address"
        },
        {
          "internalType": "uint256",
          "name": "",
          "type": "uint256"
        }
      ],
      "name": "userListings",
      "outputs": [
        {
          "internalType": "contract SingleItemListing",
          "name": "",
          "type": "address"
        }
      ],
      "stateMutability": "view",
      "type": "function"
    },
    {
      "inputs": [
        {
          "internalType": "address",
          "name": "user",
          "type": "address"
        },
        {
          "internalType": "address",
          "name": "listingAdd",
          "type": "address"
        }
      ],
      "name": "userPurchaseStorage",
      "outputs": [
        {
          "internalType": "contract SingleItemListing[]",
          "name": "",
          "type": "address[]"
        }
      ],
      "stateMutability": "nonpayable",
      "type": "function"
    },
    {
      "inputs": [
        {
          "internalType": "address",
          "name": "",
          "type": "address"
        },
        {
          "internalType": "uint256",
          "name": "",
          "type": "uint256"
        }
      ],
      "name": "userPurchases",
      "outputs": [
        {
          "internalType": "contract SingleItemListing",
          "name": "",
          "type": "address"
        }
      ],
      "stateMutability": "view",
      "type": "function"
    },
    {
      "inputs": [
        {
          "internalType": "address",
          "name": "",
          "type": "address"
        }
      ],
      "name": "userRatingMapping",
      "outputs": [
        {
          "internalType": "uint256",
          "name": "userAverage",
          "type": "uint256"
        },
        {
          "internalType": "uint256",
          "name": "numOfReviews",
          "type": "uint256"
        }
      ],
      "stateMutability": "view",
      "type": "function"
    },
    {
      "inputs": [
        {
          "internalType": "uint256",
          "name": "review",
          "type": "uint256"
        },
        {
          "internalType": "contract SingleItemListing",
          "name": "listing",
          "type": "address"
        }
      ],
      "name": "writeReview",
      "outputs": [
        {
          "internalType": "uint256",
          "name": "",
          "type": "uint256"
        }
      ],
      "stateMutability": "nonpayable",
      "type": "function"
    }
  ],
  "bytecode": {
    "object": "0x60806040526101f460005560fa60015534801561001b57600080fd5b50600280546001600160a01b031916331790556137d78061003d6000396000f3fe60806040523480156200001157600080fd5b5060043610620001455760003560e01c80638da5cb5b11620000bb578063cf2c0334116200007a578063cf2c033414620002a1578063d057b6e014620002b8578063de74e57b14620002f8578063e1a77415146200030f578063f851a440146200032657600080fd5b80638da5cb5b1462000240578063b0e21e8a1462000252578063b3cd9e03146200025c578063bbe7c8db1462000273578063c45a18c4146200028a57600080fd5b8063787dce3d1162000108578063787dce3d14620001a65780637f4b182114620001ef57806386cfa7d3146200021557806387c35bc0146200022c5780638afaacaf146200023657600080fd5b806315cab034146200014a57806327c7e2d9146200017657806347cef50b14620001a657806351aecca414620001bf57806375829def14620001d8575b600080fd5b620001616200015b36600462001060565b6200033a565b60405190151581526020015b60405180910390f35b6200018d6200018736600462001149565b620003c3565b6040516001600160a01b0390911681526020016200016d565b620001bd620001b73660046200120d565b620004dc565b005b620001c960015481565b6040519081526020016200016d565b620001bd620001e936600462001227565b620004f9565b620002066200020036600462001060565b62000533565b6040516200016d91906200124e565b6200018d620002263660046200129d565b620006e6565b620002066200071f565b620001c960035481565b6002546001600160a01b03166200018d565b620001c960005481565b620002066200026d36600462001227565b620008e7565b620001c96200028436600462001227565b6200095f565b620001c96200029b366004620012cc565b62000be3565b6200018d620002b23660046200129d565b62000f7b565b620002e2620002c936600462001227565b6008602052600090815260409020805460019091015482565b604080519283526020830191909152016200016d565b6200018d620003093660046200120d565b62000f98565b620002066200032036600462001227565b62000fc3565b6002546200018d906001600160a01b031681565b600080620003488362000fc3565b90506000805b8251811015620003ba5760008382815181106200036f576200036f620012f4565b60200260200101519050866001600160a01b0316816001600160a01b031614801562000399575082155b15620003a457600192505b5080620003b18162001320565b9150506200034e565b50949350505050565b600080338887896000546001548a8a8a43604051620003e29062001039565b620003f79a999897969594939291906200138c565b604051809103906000f08015801562000414573d6000803e3d6000fd5b506004805460018082019092557f8a35acfbc15ff81a39ae7d344fd709f28e8600b4aa8c65c6b64bfe7fe36bd19b0180546001600160a01b038481166001600160a01b03199283168117909355336000908152600560209081526040808320805497880181558352918190209095018054909316841790925581519283528c16928201929092529081018990529091507ffda7019d416df41d8c16e492bfaf488e2980f8357164113d2620bf1b5ffbc5e19060600160405180910390a1979650505050505050565b6002546001600160a01b03163314620004f457600080fd5b600055565b6002546001600160a01b031633146200051157600080fd5b600280546001600160a01b0319166001600160a01b0392909216919091179055565b606081336001600160a01b038216146200054c57600080fd5b306001600160a01b0316816001600160a01b03166388cc58e46040518163ffffffff1660e01b8152600401602060405180830381865afa15801562000595573d6000803e3d6000fd5b505050506040513d601f19601f82011682018060405250810190620005bb91906200141e565b6001600160a01b031614620005cf57600080fd5b6200063981826001600160a01b031663dbd0e1b66040518163ffffffff1660e01b8152600401602060405180830381865afa15801562000613573d6000803e3d6000fd5b505050506040513d601f19601f820116820180604052508101906200015b91906200141e565b6200064357600080fd5b6001600160a01b03848116600081815260066020908152604080832080546001810182558185528385200180546001600160a01b0319169688169690961790955592909152825482518183028101830190935280835291929190830182828015620006d857602002820191906000526020600020905b81546001600160a01b03168152600190910190602001808311620006b9575b505050505091505092915050565b600560205281600052604060002081815481106200070357600080fd5b6000918252602090912001546001600160a01b03169150829050565b60045460609060009067ffffffffffffffff8111156200074357620007436200109e565b6040519080825280602002602001820160405280156200076d578160200160208202803683370190505b5090506000805b600454811015620008df57600060048281548110620007975762000797620012f4565b6000918252602091829020015460408051632c17870b60e11b815290516001600160a01b039092169350839263582f0e16926004808401938290030181865afa158015620007e9573d6000803e3d6000fd5b505050506040513d601f19601f820116820180604052508101906200080f91906200143e565b1580156200087f5750806001600160a01b031663ecb70fb76040518163ffffffff1660e01b8152600401602060405180830381865afa15801562000857573d6000803e3d6000fd5b505050506040513d601f19601f820116820180604052508101906200087d91906200143e565b155b15620008c957808484620008938162001320565b955081518110620008a857620008a8620012f4565b60200260200101906001600160a01b031690816001600160a01b0316815250505b5080620008d68162001320565b91505062000774565b509092915050565b6001600160a01b0381166000908152600660209081526040918290208054835181840281018401909452808452606093928301828280156200095357602002820191906000526020600020905b81546001600160a01b0316815260019091019060200180831162000934575b50505050509050919050565b6000806200096d3362000fc3565b90506000805b825181101562000b57576000838281518110620009945762000994620012f4565b60200260200101519050806001600160a01b031663ecb70fb76040518163ffffffff1660e01b8152600401602060405180830381865afa158015620009dd573d6000803e3d6000fd5b505050506040513d601f19601f8201168201806040525081019062000a0391906200143e565b801562000a725750806001600160a01b031663551f18136040518163ffffffff1660e01b8152600401602060405180830381865afa15801562000a4a573d6000803e3d6000fd5b505050506040513d601f19601f8201168201806040525081019062000a7091906200143e565b155b1562000b4157806001600160a01b0316637c81ed246040518163ffffffff1660e01b8152600401600060405180830381600087803b15801562000ab457600080fd5b505af115801562000ac9573d6000803e3d6000fd5b50505050806001600160a01b031663ca5f42826040518163ffffffff1660e01b8152600401602060405180830381865afa15801562000b0c573d6000803e3d6000fd5b505050506040513d601f19601f8201168201806040525081019062000b32919062001462565b62000b3e90846200147c565b92505b508062000b4e8162001320565b91505062000973565b506001600160a01b038416600090815260086020526040812054908262000b8060018462001497565b62000b8c9190620014b1565b6001600160a01b03871660009081526007602052604081208054929350839290919062000bbb9084906200147c565b9091555050506001600160a01b03909416600090815260076020526040902054949350505050565b6000826001148062000bf55750826002145b8062000c015750826003145b8062000c0d5750826004145b8062000c195750826005145b62000c755760405162461bcd60e51b815260206004820152602160248201527f526576696577206973206e6f74206120636f6d70617469626c65206e756d62656044820152603960f91b60648201526084015b60405180910390fd5b816001600160a01b0316634090613d6040518163ffffffff1660e01b8152600401602060405180830381865afa15801562000cb4573d6000803e3d6000fd5b505050506040513d601f19601f8201168201806040525081019062000cda91906200143e565b1562000d385760405162461bcd60e51b815260206004820152602660248201527f54686973206c697374696e672068617320616c7265616479206265656e2072656044820152651d9a595dd95960d21b606482015260840162000c6c565b816001600160a01b031663d63fa1466040518163ffffffff1660e01b8152600401602060405180830381865afa15801562000d77573d6000803e3d6000fd5b505050506040513d601f19601f8201168201806040525081019062000d9d91906200143e565b1515600114801562000e245750816001600160a01b031663603daf9a6040518163ffffffff1660e01b8152600401602060405180830381865afa15801562000de9573d6000803e3d6000fd5b505050506040513d601f19601f8201168201806040525081019062000e0f91906200141e565b6001600160a01b0316336001600160a01b0316145b62000e2e57600080fd5b6000826001600160a01b031663dbd0e1b66040518163ffffffff1660e01b8152600401602060405180830381865afa15801562000e6f573d6000803e3d6000fd5b505050506040513d601f19601f8201168201806040525081019062000e9591906200141e565b6001600160a01b0381166000908152600860205260408120805460019091015492935091908662000ec78385620014b1565b62000ed391906200147c565b9050600062000ee48360016200147c565b9050866001600160a01b0316636a1c00dc6040518163ffffffff1660e01b81526004016020604051808303816000875af115801562000f27573d6000803e3d6000fd5b505050506040513d601f19601f8201168201806040525081019062000f4d91906200143e565b506001600160a01b039490941660009081526008602052604090209081556001019290925550929392505050565b600660205281600052604060002081815481106200070357600080fd5b6004818154811062000fa957600080fd5b6000918252602090912001546001600160a01b0316905081565b6001600160a01b03811660009081526005602090815260409182902080548351818402810184019094528084526060939283018282801562000953576020028201919060005260206000209081546001600160a01b03168152600190910190602001808311620009345750505050509050919050565b6122ce80620014d483390190565b6001600160a01b03811681146200105d57600080fd5b50565b600080604083850312156200107457600080fd5b8235620010818162001047565b91506020830135620010938162001047565b809150509250929050565b634e487b7160e01b600052604160045260246000fd5b600082601f830112620010c657600080fd5b813567ffffffffffffffff80821115620010e457620010e46200109e565b604051601f8301601f19908116603f011681019082821181831017156200110f576200110f6200109e565b816040528381528660208588010111156200112957600080fd5b836020870160208301376000602085830101528094505050505092915050565b60008060008060008060c087890312156200116357600080fd5b8635620011708162001047565b9550602087013594506040870135620011898162001047565b9350606087013567ffffffffffffffff80821115620011a757600080fd5b620011b58a838b01620010b4565b94506080890135915080821115620011cc57600080fd5b620011da8a838b01620010b4565b935060a0890135915080821115620011f157600080fd5b506200120089828a01620010b4565b9150509295509295509295565b6000602082840312156200122057600080fd5b5035919050565b6000602082840312156200123a57600080fd5b8135620012478162001047565b9392505050565b6020808252825182820181905260009190848201906040850190845b81811015620012915783516001600160a01b0316835292840192918401916001016200126a565b50909695505050505050565b60008060408385031215620012b157600080fd5b8235620012be8162001047565b946020939093013593505050565b60008060408385031215620012e057600080fd5b823591506020830135620010938162001047565b634e487b7160e01b600052603260045260246000fd5b634e487b7160e01b600052601160045260246000fd5b6000600182016200133557620013356200130a565b5060010190565b6000815180845260005b81811015620013645760208185018101518683018201520162001346565b8181111562001377576000602083870101525b50601f01601f19169290920160200192915050565b6001600160a01b038b811682528a8116602083015289166040820152606081018890526080810187905260a0810186905261014060c08201819052600090620013d8838201886200133c565b905082810360e0840152620013ee81876200133c565b90508281036101008401526200140581866200133c565b915050826101208301529b9a5050505050505050505050565b6000602082840312156200143157600080fd5b8151620012478162001047565b6000602082840312156200145157600080fd5b815180151581146200124757600080fd5b6000602082840312156200147557600080fd5b5051919050565b600082198211156200149257620014926200130a565b500190565b600082821015620014ac57620014ac6200130a565b500390565b6000816000190483118215151615620014ce57620014ce6200130a565b50029056fe6101806040526000805461ffff191690556001805464ffffffffff60a01b191690553480156200002e57600080fd5b50604051620022ce380380620022ce8339810160408190526200005191620002ea565b3360808190526001600160a01b038b811660a0528a811660c05260e089905289166101005261012087905261014086905260408051638da5cb5b60e01b81529051638da5cb5b916004808201926020929091908290030181865afa158015620000be573d6000803e3d6000fd5b505050506040513d601f19601f82011682018060405250810190620000e49190620003de565b600180546001600160a01b0319166001600160a01b03929092169190911790558351620001199060029060208701906200015a565b5082516200012f9060039060208601906200015a565b508151620001459060049060208501906200015a565b5061016052506200043f975050505050505050565b828054620001689062000403565b90600052602060002090601f0160209004810192826200018c5760008555620001d7565b82601f10620001a757805160ff1916838001178555620001d7565b82800160010185558215620001d7579182015b82811115620001d7578251825591602001919060010190620001ba565b50620001e5929150620001e9565b5090565b5b80821115620001e55760008155600101620001ea565b80516001600160a01b03811681146200021857600080fd5b919050565b634e487b7160e01b600052604160045260246000fd5b600082601f8301126200024557600080fd5b81516001600160401b03808211156200026257620002626200021d565b604051601f8301601f19908116603f011681019082821181831017156200028d576200028d6200021d565b81604052838152602092508683858801011115620002aa57600080fd5b600091505b83821015620002ce5785820183015181830184015290820190620002af565b83821115620002e05760008385830101525b9695505050505050565b6000806000806000806000806000806101408b8d0312156200030b57600080fd5b620003168b62000200565b99506200032660208c0162000200565b98506200033660408c0162000200565b60608c015160808d015160a08e015160c08f0151939b50919950975095506001600160401b03808211156200036a57600080fd5b620003788e838f0162000233565b955060e08d01519150808211156200038f57600080fd5b6200039d8e838f0162000233565b94506101008d0151915080821115620003b557600080fd5b50620003c48d828e0162000233565b9250506101208b015190509295989b9194979a5092959850565b600060208284031215620003f157600080fd5b620003fc8262000200565b9392505050565b600181811c908216806200041857607f821691505b6020821081036200043957634e487b7160e01b600052602260045260246000fd5b50919050565b60805160a05160c05160e05161010051610120516101405161016051611cee620005e0600039600081816102920152610fab0152600081816102c701526110ed015260008181610442015261109c01526000818161035a0152818161086701528181610ac801528181610c9701528181610cda01528181610d800152818161104801526112e401526000818161049001528181610b8a01528181610dcf0152818161107b015281816110cc0152818161112c015261146d01526000818161033301528181610596015281816106a801528181610764015281816107eb015281816108f401528181610b6201528181610da80152818161118801528181611205015281816112b50152818161144701526115a5015260008181610210015281816104bf015281816105b8015281816106ca0152818161078601528181610a9501528181610b3a01528181610be601528181610c2901528181610d5b0152818161141f015281816114f001526115830152600081816103cd0152818161046901528181610953015281816109a101528181610a31015261138e0152611cee6000f3fe608060405234801561001057600080fd5b50600436106102065760003560e01c8063879f9c961161011a578063c45a0155116100ad578063ea8a1af01161007c578063ea8a1af0146104e3578063ec10f769146104eb578063ecb70fb7146104fd578063f851a4401461050a578063fa2b9a681461051d57600080fd5b8063c45a015514610464578063ca5f42821461048b578063d63fa146146104b2578063dbd0e1b6146104bd57600080fd5b8063a6f2ae3a116100e9578063a6f2ae3a1461040e578063a95c079814610416578063aa9a09121461042a578063b0e21e8a1461043d57600080fd5b8063879f9c96146103b957806388cc58e4146103cb578063a403eb2d146103f1578063a60f6811146103f957600080fd5b8063601a68381161019d5780636cc6cde11161016c5780636cc6cde1146103555780636e9960c31461037c5780637150d8ae14610384578063789015831461039d5780637c81ed24146103b157600080fd5b8063601a683814610305578063603daf9a1461030f5780636a1c00dc146103265780636a3b83551461032e57600080fd5b80634e989a4c116101d95780634e989a4c1461028d57806351aecca4146102c2578063551f1813146102e9578063582f0e16146102fd57600080fd5b806308551a531461020b5780630b8712c31461024f5780631183dbed146102675780634090613d1461027b575b600080fd5b6102327f000000000000000000000000000000000000000000000000000000000000000081565b6040516001600160a01b0390911681526020015b60405180910390f35b610257610531565b6040519015158152602001610246565b60015461025790600160a01b900460ff1681565b600154600160b81b900460ff16610257565b6102b47f000000000000000000000000000000000000000000000000000000000000000081565b604051908152602001610246565b6102b47f000000000000000000000000000000000000000000000000000000000000000081565b60015461025790600160c01b900460ff1681565b6102576107c9565b61030d61085c565b005b6000546201000090046001600160a01b0316610232565b610257610946565b6102327f000000000000000000000000000000000000000000000000000000000000000081565b6102327f000000000000000000000000000000000000000000000000000000000000000081565b61023261099d565b600054610232906201000090046001600160a01b031681565b60015461025790600160b81b900460ff1681565b61030d610a26565b60005461025790610100900460ff1681565b7f0000000000000000000000000000000000000000000000000000000000000000610232565b61030d610a70565b610401610d41565b6040516102469190611922565b61030d61100c565b60015461025790600160b01b900460ff1681565b6102b4610438366004611a1e565b6114c4565b6102b47f000000000000000000000000000000000000000000000000000000000000000081565b6102327f000000000000000000000000000000000000000000000000000000000000000081565b6102b47f000000000000000000000000000000000000000000000000000000000000000081565b60005460ff16610257565b7f0000000000000000000000000000000000000000000000000000000000000000610232565b61030d6114e5565b600154600160c01b900460ff16610257565b6000546102579060ff1681565b600154610232906001600160a01b031681565b60015461025790600160a81b900460ff1681565b60018054600091600160a01b90910460ff16151514801561055f575060018054600160a81b900460ff161515145b8015610578575060005460ff6101009091041615156001145b15610647576040516370a0823160e01b8152306004820152610633907f0000000000000000000000000000000000000000000000000000000000000000907f0000000000000000000000000000000000000000000000000000000000000000906001600160a01b038316906370a08231906024015b602060405180830381865afa15801561060a573d6000803e3d6000fd5b505050506040513d601f19601f8201168201806040525081019061062e9190611a4a565b611629565b506000805460ff1916600190811790915590565b60018054600160a01b900460ff161515148015610671575060018054600160b01b900460ff161515145b801561068a575060005460ff6101009091041615156001145b15610703576040516370a0823160e01b8152306004820152610633907f0000000000000000000000000000000000000000000000000000000000000000907f0000000000000000000000000000000000000000000000000000000000000000906001600160a01b038316906370a08231906024016105ed565b60018054600160a81b900460ff16151514801561072d575060018054600160b01b900460ff161515145b8015610746575060005460ff6101009091041615156001145b156107bf576040516370a0823160e01b8152306004820152610633907f0000000000000000000000000000000000000000000000000000000000000000907f0000000000000000000000000000000000000000000000000000000000000000906001600160a01b038316906370a08231906024016105ed565b5060005460ff1690565b6040516370a0823160e01b815230600482015260009081906001600160a01b037f000000000000000000000000000000000000000000000000000000000000000016906370a0823190602401602060405180830381865afa158015610832573d6000803e3d6000fd5b505050506040513d601f19601f820116820180604052508101906108569190611a4a565b11905090565b336001600160a01b037f0000000000000000000000000000000000000000000000000000000000000000161461089157600080fd5b600154600160b01b900460ff161580156108b55750600154600160a81b900460ff16155b6108be57600080fd5b60005460ff6101009091041615156001146108d857600080fd5b6000546040516370a0823160e01b8152306004820152610937917f0000000000000000000000000000000000000000000000000000000000000000916001600160a01b03620100009092048216918316906370a08231906024016105ed565b6000805460ff19166001179055565b6000336001600160a01b037f0000000000000000000000000000000000000000000000000000000000000000161461097d57600080fd5b506001805460ff60b81b1916600160b81b90811791829055900460ff1690565b60007f00000000000000000000000000000000000000000000000000000000000000006001600160a01b0316638da5cb5b6040518163ffffffff1660e01b8152600401602060405180830381865afa1580156109fd573d6000803e3d6000fd5b505050506040513d601f19601f82011682018060405250810190610a219190611a7b565b905090565b336001600160a01b037f00000000000000000000000000000000000000000000000000000000000000001614610a5b57600080fd5b6001805460ff60c01b1916600160c01b179055565b6000546201000090046001600160a01b0316331480610ab75750336001600160a01b037f000000000000000000000000000000000000000000000000000000000000000016145b80610aea5750336001600160a01b037f000000000000000000000000000000000000000000000000000000000000000016145b610af357600080fd5b6000546201000090046001600160a01b03163303610bdc576001805460ff60a81b1916600160a81b179055600054604080516001600160a01b0362010000909304831681527f0000000000000000000000000000000000000000000000000000000000000000831660208201527f0000000000000000000000000000000000000000000000000000000000000000909216908201527f000000000000000000000000000000000000000000000000000000000000000060608201527fd1adf00770f4f2c244fc8d5cb5241db27fe0b93caefb089fdd86309256788a8a9060800160405180910390a15b6001600160a01b037f0000000000000000000000000000000000000000000000000000000000000000163303610c8d576001805460ff60a01b1916600160a01b90811791829055604080517f00000000000000000000000000000000000000000000000000000000000000006001600160a01b031681529190920460ff16151560208201527f2cd5f1b7c9746d6c7f12ba3cac10bb2ea2dd5ed664c19ecfbc25cb962b0d73fd910160405180910390a15b6001600160a01b037f0000000000000000000000000000000000000000000000000000000000000000163303610d3f576001805460ff60b01b1916600160b01b90811791829055604080517f00000000000000000000000000000000000000000000000000000000000000006001600160a01b031681529190920460ff16151560208201527fae19fbd29a5cc1375bcc48ea65089a54f7bfdff538fbcf979a0d75c072c324af91015b60405180910390a15b565b610d4961186b565b610d5161186b565b6001600160a01b037f0000000000000000000000000000000000000000000000000000000000000000811682527f0000000000000000000000000000000000000000000000000000000000000000811660208301527f00000000000000000000000000000000000000000000000000000000000000001660408201527f0000000000000000000000000000000000000000000000000000000000000000606082015260038054610e0090611a98565b80601f0160208091040260200160405190810160405280929190818152602001828054610e2c90611a98565b8015610e795780601f10610e4e57610100808354040283529160200191610e79565b820191906000526020600020905b815481529060010190602001808311610e5c57829003601f168201915b50505050508160a0018190525060028054610e9390611a98565b80601f0160208091040260200160405190810160405280929190818152602001828054610ebf90611a98565b8015610f0c5780601f10610ee157610100808354040283529160200191610f0c565b820191906000526020600020905b815481529060010190602001808311610eef57829003601f168201915b5050505050816080018190525060048054610f2690611a98565b80601f0160208091040260200160405190810160405280929190818152602001828054610f5290611a98565b8015610f9f5780601f10610f7457610100808354040283529160200191610f9f565b820191906000526020600020905b815481529060010190602001808311610f8257829003601f168201915b505050505060c08201527f000000000000000000000000000000000000000000000000000000000000000060e082015260015460ff600160a01b820481161515610100840152600160a81b820481161515610120840152600160b01b909104161515610140820152919050565b600054610100900460ff161561102157600080fd5b6000546201000090046001600160a01b0316331480159061106b5750336001600160a01b037f00000000000000000000000000000000000000000000000000000000000000001614155b61107457600080fd5b60006110c37f00000000000000000000000000000000000000000000000000000000000000007f00000000000000000000000000000000000000000000000000000000000000006127106114c4565b905060006111147f00000000000000000000000000000000000000000000000000000000000000007f00000000000000000000000000000000000000000000000000000000000000006127106114c4565b905060006111228284611ae8565b90506000611150827f0000000000000000000000000000000000000000000000000000000000000000611b00565b6000805462010000600160b01b03191633620100008102919091179091556040516323b872dd60e01b81529192506001600160a01b037f000000000000000000000000000000000000000000000000000000000000000016916323b872dd916111bf9130908690600401611b17565b6020604051808303816000875af11580156111de573d6000803e3d6000fd5b505050506040513d601f19601f820116820180604052508101906112029190611b3b565b507f00000000000000000000000000000000000000000000000000000000000000006001600160a01b03166323b872dd3361123b61099d565b876040518463ffffffff1660e01b815260040161125a93929190611b17565b6020604051808303816000875af1158015611279573d6000803e3d6000fd5b505050506040513d601f19601f8201168201806040525081019061129d9190611b3b565b506040516323b872dd60e01b81526001600160a01b037f000000000000000000000000000000000000000000000000000000000000000016906323b872dd9061130e9033907f0000000000000000000000000000000000000000000000000000000000000000908890600401611b17565b6020604051808303816000875af115801561132d573d6000803e3d6000fd5b505050506040513d601f19601f820116820180604052508101906113519190611b3b565b506000805461ff0019166101001790819055604051637f4b182160e01b81526001600160a01b0362010000909204821660048201523060248201527f000000000000000000000000000000000000000000000000000000000000000090911690637f4b1821906044016000604051808303816000875af11580156113d9573d6000803e3d6000fd5b505050506040513d6000823e601f3d908101601f191682016040526114019190810190611b83565b5060005460408051620100009092046001600160a01b0390811683527f0000000000000000000000000000000000000000000000000000000000000000811660208401527f000000000000000000000000000000000000000000000000000000000000000016908201527f000000000000000000000000000000000000000000000000000000000000000060608201527f93f7aa200698f7035ffdcd4e6bc9dd9caf7853d59c1465ed93ac8827b6ff5c229060800160405180910390a150505050565b6000816114d18486611c48565b6114db9190611c67565b90505b9392505050565b336001600160a01b037f0000000000000000000000000000000000000000000000000000000000000000161461151a57600080fd5b60005460ff161561152a57600080fd5b600054610100900460ff161561153f57600080fd5b6000805460ff191660011790556040516370a0823160e01b81523060048201527ffb87149f10f1ffda9c1df55fae0d68fe643c8be0790eec2f859205ed312cd68b907f0000000000000000000000000000000000000000000000000000000000000000907f0000000000000000000000000000000000000000000000000000000000000000906001600160a01b038216906370a0823190602401602060405180830381865afa1580156115f6573d6000803e3d6000fd5b505050506040513d601f19601f8201168201806040525081019061161a9190611a4a565b604051610d3693929190611b17565b604080516001600160a01b038416602482015260448082018490528251808303909101815260649091019091526020810180516001600160e01b031663a9059cbb60e01b17905261167b908490611680565b505050565b60006116d5826040518060400160405280602081526020017f5361666545524332303a206c6f772d6c6576656c2063616c6c206661696c6564815250856001600160a01b03166117579092919063ffffffff16565b80519091501561167b57808060200190518101906116f39190611b3b565b61167b5760405162461bcd60e51b815260206004820152602a60248201527f5361666545524332303a204552433230206f7065726174696f6e20646964206e6044820152691bdd081cdd58d8d9595960b21b60648201526084015b60405180910390fd5b60606114db8484600085856001600160a01b0385163b6117b95760405162461bcd60e51b815260206004820152601d60248201527f416464726573733a2063616c6c20746f206e6f6e2d636f6e7472616374000000604482015260640161174e565b600080866001600160a01b031685876040516117d59190611c89565b60006040518083038185875af1925050503d8060008114611812576040519150601f19603f3d011682016040523d82523d6000602084013e611817565b606091505b5091509150611827828286611832565b979650505050505050565b606083156118415750816114de565b8251156118515782518084602001fd5b8160405162461bcd60e51b815260040161174e9190611ca5565b604080516101608101825260008082526020820181905291810182905260608082018390526080820181905260a0820181905260c082015260e081018290526101008101829052610120810182905261014081019190915290565b60005b838110156118e15781810151838201526020016118c9565b838111156118f0576000848401525b50505050565b6000815180845261190e8160208601602086016118c6565b601f01601f19169290920160200192915050565b6020815261193c6020820183516001600160a01b03169052565b6000602083015161195860408401826001600160a01b03169052565b5060408301516001600160a01b0381166060840152506060830151608083015260808301516101608060a08501526119946101808501836118f6565b915060a0850151601f19808685030160c08701526119b284836118f6565b935060c08701519150808685030160e0870152506119d083826118f6565b92505060e08501516101008181870152808701519150506101206119f78187018315159052565b8601519050610140611a0c8682018315159052565b90950151151593019290925250919050565b600080600060608486031215611a3357600080fd5b505081359360208301359350604090920135919050565b600060208284031215611a5c57600080fd5b5051919050565b6001600160a01b0381168114611a7857600080fd5b50565b600060208284031215611a8d57600080fd5b81516114de81611a63565b600181811c90821680611aac57607f821691505b602082108103611acc57634e487b7160e01b600052602260045260246000fd5b50919050565b634e487b7160e01b600052601160045260246000fd5b60008219821115611afb57611afb611ad2565b500190565b600082821015611b1257611b12611ad2565b500390565b6001600160a01b039384168152919092166020820152604081019190915260600190565b600060208284031215611b4d57600080fd5b815180151581146114de57600080fd5b634e487b7160e01b600052604160045260246000fd5b8051611b7e81611a63565b919050565b60006020808385031215611b9657600080fd5b825167ffffffffffffffff80821115611bae57600080fd5b818501915085601f830112611bc257600080fd5b815181811115611bd457611bd4611b5d565b8060051b604051601f19603f83011681018181108582111715611bf957611bf9611b5d565b604052918252848201925083810185019188831115611c1757600080fd5b938501935b82851015611c3c57611c2d85611b73565b84529385019392850192611c1c565b98975050505050505050565b6000816000190483118215151615611c6257611c62611ad2565b500290565b600082611c8457634e487b7160e01b600052601260045260246000fd5b500490565b60008251611c9b8184602087016118c6565b9190910192915050565b6020815260006114de60208301846118f656fea2646970667358221220defdfc05903e134854bee6ab70397c63db1c6ebd7d046f9c4c6b9a19d123fd6164736f6c634300080d0033a2646970667358221220f04a3eaada8415a199cd0a813decc59692b04da4e0059d042032ae48a63fe6e164736f6c634300080d0033",
    "linkReferences": {}
  }
}