{
  "abi": [
    {
      "inputs": [
        {
          "internalType": "address",
          "name": "_seller",
          "type": "address"
        },
        {
          "internalType": "address",
          "name": "_tokenWanted",
          "type": "address"
        },
        {
          "internalType": "address",
          "name": "_arbitrator",
          "type": "address"
        },
        {
          "internalType": "uint256",
          "name": "_amountWanted",
          "type": "uint256"
        },
        {
          "internalType": "uint256",
          "name": "_protocolFee",
          "type": "uint256"
        },
        {
          "internalType": "uint256",
          "name": "_arbitratorFee",
          "type": "uint256"
        },
        {
          "internalType": "string",
          "name": "_imageURL",
          "type": "string"
        },
        {
          "internalType": "string",
          "name": "_itemName",
          "type": "string"
        },
        {
          "internalType": "string",
          "name": "_itemDesc",
          "type": "string"
        }
      ],
      "stateMutability": "nonpayable",
      "type": "constructor"
    },
    {
      "anonymous": false,
      "inputs": [
        {
          "indexed": false,
          "internalType": "address",
          "name": "arbitrator",
          "type": "address"
        },
        {
          "indexed": false,
          "internalType": "bool",
          "name": "arbitratorConfirm",
          "type": "bool"
        }
      ],
      "name": "ArbitratorConfirmation",
      "type": "event"
    },
    {
      "anonymous": false,
      "inputs": [
        {
          "indexed": false,
          "internalType": "address",
          "name": "buyer",
          "type": "address"
        },
        {
          "indexed": false,
          "internalType": "address",
          "name": "seller",
          "type": "address"
        },
        {
          "indexed": false,
          "internalType": "address",
          "name": "tokenWanted",
          "type": "address"
        },
        {
          "indexed": false,
          "internalType": "uint256",
          "name": "amountReceived",
          "type": "uint256"
        }
      ],
      "name": "ListingArrived",
      "type": "event"
    },
    {
      "anonymous": false,
      "inputs": [
        {
          "indexed": false,
          "internalType": "address",
          "name": "seller",
          "type": "address"
        },
        {
          "indexed": false,
          "internalType": "address",
          "name": "tokenWanted",
          "type": "address"
        },
        {
          "indexed": false,
          "internalType": "uint256",
          "name": "amountWanted",
          "type": "uint256"
        }
      ],
      "name": "ListingCanceled",
      "type": "event"
    },
    {
      "anonymous": false,
      "inputs": [
        {
          "indexed": false,
          "internalType": "address",
          "name": "buyer",
          "type": "address"
        },
        {
          "indexed": false,
          "internalType": "address",
          "name": "seller",
          "type": "address"
        },
        {
          "indexed": false,
          "internalType": "address",
          "name": "tokenWanted",
          "type": "address"
        },
        {
          "indexed": false,
          "internalType": "uint256",
          "name": "amountWanted",
          "type": "uint256"
        }
      ],
      "name": "ListingPurchased",
      "type": "event"
    },
    {
      "anonymous": false,
      "inputs": [
        {
          "indexed": false,
          "internalType": "address",
          "name": "seller",
          "type": "address"
        },
        {
          "indexed": false,
          "internalType": "bool",
          "name": "sellerConfirm",
          "type": "bool"
        }
      ],
      "name": "SellerConfirmation",
      "type": "event"
    },
    {
      "inputs": [],
      "name": "admin",
      "outputs": [
        {
          "internalType": "address",
          "name": "",
          "type": "address"
        }
      ],
      "stateMutability": "view",
      "type": "function"
    },
    {
      "inputs": [],
      "name": "amountWanted",
      "outputs": [
        {
          "internalType": "uint256",
          "name": "",
          "type": "uint256"
        }
      ],
      "stateMutability": "view",
      "type": "function"
    },
    {
      "inputs": [],
      "name": "arbitrator",
      "outputs": [
        {
          "internalType": "address",
          "name": "",
          "type": "address"
        }
      ],
      "stateMutability": "view",
      "type": "function"
    },
    {
      "inputs": [],
      "name": "arbitratorConfirm",
      "outputs": [
        {
          "internalType": "bool",
          "name": "",
          "type": "bool"
        }
      ],
      "stateMutability": "view",
      "type": "function"
    },
    {
      "inputs": [],
      "name": "arbitratorFee",
      "outputs": [
        {
          "internalType": "uint256",
          "name": "",
          "type": "uint256"
        }
      ],
      "stateMutability": "view",
      "type": "function"
    },
    {
      "inputs": [],
      "name": "buy",
      "outputs": [],
      "stateMutability": "nonpayable",
      "type": "function"
    },
    {
      "inputs": [],
      "name": "buyer",
      "outputs": [
        {
          "internalType": "address",
          "name": "",
          "type": "address"
        }
      ],
      "stateMutability": "view",
      "type": "function"
    },
    {
      "inputs": [],
      "name": "buyerConfirm",
      "outputs": [
        {
          "internalType": "bool",
          "name": "",
          "type": "bool"
        }
      ],
      "stateMutability": "view",
      "type": "function"
    },
    {
      "inputs": [],
      "name": "cancel",
      "outputs": [],
      "stateMutability": "nonpayable",
      "type": "function"
    },
    {
      "inputs": [],
      "name": "confirmArrival",
      "outputs": [],
      "stateMutability": "nonpayable",
      "type": "function"
    },
    {
      "inputs": [],
      "name": "factory",
      "outputs": [
        {
          "internalType": "address",
          "name": "",
          "type": "address"
        }
      ],
      "stateMutability": "view",
      "type": "function"
    },
    {
      "inputs": [],
      "name": "getAdmin",
      "outputs": [
        {
          "internalType": "address",
          "name": "",
          "type": "address"
        }
      ],
      "stateMutability": "view",
      "type": "function"
    },
    {
      "inputs": [],
      "name": "getBuyer",
      "outputs": [
        {
          "internalType": "address",
          "name": "",
          "type": "address"
        }
      ],
      "stateMutability": "view",
      "type": "function"
    },
    {
      "inputs": [],
      "name": "getFrontEndData",
      "outputs": [
        {
          "components": [
            {
              "internalType": "address",
              "name": "seller_",
              "type": "address"
            },
            {
              "internalType": "address",
              "name": "arbitrator_",
              "type": "address"
            },
            {
              "internalType": "address",
              "name": "tokenWanted_",
              "type": "address"
            },
            {
              "internalType": "uint256",
              "name": "amountWanted_",
              "type": "uint256"
            },
            {
              "internalType": "string",
              "name": "imageURL_",
              "type": "string"
            },
            {
              "internalType": "string",
              "name": "itemName_",
              "type": "string"
            },
            {
              "internalType": "string",
              "name": "itemDesc_",
              "type": "string"
            }
          ],
          "internalType": "struct SingleItemListing.localVars",
          "name": "",
          "type": "tuple"
        }
      ],
      "stateMutability": "view",
      "type": "function"
    },
    {
      "inputs": [],
      "name": "getHasEnded",
      "outputs": [
        {
          "internalType": "bool",
          "name": "",
          "type": "bool"
        }
      ],
      "stateMutability": "view",
      "type": "function"
    },
    {
      "inputs": [],
      "name": "hasEnded",
      "outputs": [
        {
          "internalType": "bool",
          "name": "",
          "type": "bool"
        }
      ],
      "stateMutability": "view",
      "type": "function"
    },
    {
      "inputs": [],
      "name": "hasThisBeenReviewed",
      "outputs": [
        {
          "internalType": "bool",
          "name": "",
          "type": "bool"
        }
      ],
      "stateMutability": "view",
      "type": "function"
    },
    {
      "inputs": [],
      "name": "hasTokens",
      "outputs": [
        {
          "internalType": "bool",
          "name": "",
          "type": "bool"
        }
      ],
      "stateMutability": "view",
      "type": "function"
    },
    {
      "inputs": [
        {
          "internalType": "uint256",
          "name": "x",
          "type": "uint256"
        },
        {
          "internalType": "uint256",
          "name": "y",
          "type": "uint256"
        },
        {
          "internalType": "uint256",
          "name": "z",
          "type": "uint256"
        }
      ],
      "name": "mulDiv",
      "outputs": [
        {
          "internalType": "uint256",
          "name": "",
          "type": "uint256"
        }
      ],
      "stateMutability": "pure",
      "type": "function"
    },
    {
      "inputs": [],
      "name": "protocolFee",
      "outputs": [
        {
          "internalType": "uint256",
          "name": "",
          "type": "uint256"
        }
      ],
      "stateMutability": "view",
      "type": "function"
    },
    {
      "inputs": [],
      "name": "purchased",
      "outputs": [
        {
          "internalType": "bool",
          "name": "",
          "type": "bool"
        }
      ],
      "stateMutability": "view",
      "type": "function"
    },
    {
      "inputs": [],
      "name": "returnAssetsToBuyer",
      "outputs": [],
      "stateMutability": "nonpayable",
      "type": "function"
    },
    {
      "inputs": [],
      "name": "reviewSeller",
      "outputs": [],
      "stateMutability": "nonpayable",
      "type": "function"
    },
    {
      "inputs": [],
      "name": "seller",
      "outputs": [
        {
          "internalType": "address",
          "name": "",
          "type": "address"
        }
      ],
      "stateMutability": "view",
      "type": "function"
    },
    {
      "inputs": [],
      "name": "sellerClaim",
      "outputs": [
        {
          "internalType": "bool",
          "name": "",
          "type": "bool"
        }
      ],
      "stateMutability": "nonpayable",
      "type": "function"
    },
    {
      "inputs": [],
      "name": "sellerConfirm",
      "outputs": [
        {
          "internalType": "bool",
          "name": "",
          "type": "bool"
        }
      ],
      "stateMutability": "view",
      "type": "function"
    },
    {
      "inputs": [],
      "name": "tokenWanted",
      "outputs": [
        {
          "internalType": "address",
          "name": "",
          "type": "address"
        }
      ],
      "stateMutability": "view",
      "type": "function"
    }
  ],
  "bytecode": {
    "object": "0x6101606040526000805461ffff191690556001805463ffffffff60a01b191690553480156200002d57600080fd5b5060405162001e1d38038062001e1d8339810160408190526200005091620002e4565b3360808190526001600160a01b038a811660a05289811660c05260e088905288166101005261012086905261014085905260408051638da5cb5b60e01b81529051638da5cb5b916004808201926020929091908290030181865afa158015620000bd573d6000803e3d6000fd5b505050506040513d601f19601f82011682018060405250810190620000e39190620003cd565b600180546001600160a01b0319166001600160a01b039290921691909117905582516200011890600290602086019062000154565b5081516200012e90600390602085019062000154565b5080516200014490600490602084019062000154565b505050505050505050506200042e565b8280546200016290620003f2565b90600052602060002090601f016020900481019282620001865760008555620001d1565b82601f10620001a157805160ff1916838001178555620001d1565b82800160010185558215620001d1579182015b82811115620001d1578251825591602001919060010190620001b4565b50620001df929150620001e3565b5090565b5b80821115620001df5760008155600101620001e4565b80516001600160a01b03811681146200021257600080fd5b919050565b634e487b7160e01b600052604160045260246000fd5b600082601f8301126200023f57600080fd5b81516001600160401b03808211156200025c576200025c62000217565b604051601f8301601f19908116603f0116810190828211818310171562000287576200028762000217565b81604052838152602092508683858801011115620002a457600080fd5b600091505b83821015620002c85785820183015181830184015290820190620002a9565b83821115620002da5760008385830101525b9695505050505050565b60008060008060008060008060006101208a8c0312156200030457600080fd5b6200030f8a620001fa565b98506200031f60208b01620001fa565b97506200032f60408b01620001fa565b60608b015160808c015160a08d015160c08e0151939a50919850965094506001600160401b03808211156200036357600080fd5b620003718d838e016200022d565b945060e08c01519150808211156200038857600080fd5b620003968d838e016200022d565b93506101008c0151915080821115620003ae57600080fd5b50620003bd8c828d016200022d565b9150509295985092959850929598565b600060208284031215620003e057600080fd5b620003eb82620001fa565b9392505050565b600181811c908216806200040757607f821691505b6020821081036200042857634e487b7160e01b600052602260045260246000fd5b50919050565b60805160a05160c05160e0516101005161012051610140516118836200059a600039600081816102230152610e9501526000818161036a0152610e440152600081816102b0015281816107570152818161096101528181610b3001528181610b7301528181610c190152610df00152600081816103b801528181610a2301528181610c6801528181610e2301528181610e7401528181610ed40152611151015260008181610289015281816104860152818161059801528181610654015281816106db015281816107e4015281816109fb01528181610c4101528181610f1201528181610f910152818161102c0152818161112801526112890152600081816101b3015281816104a8015281816105ba015281816106760152818161092e015281816109d301528181610a7f01528181610ac201528181610bf401528181611100015281816111d4015261126701526000818161039101528181610841015261088401526118836000f3fe608060405234801561001057600080fd5b50600436106101a95760003560e01c8063879f9c96116100f9578063c45a015511610097578063ea8a1af011610071578063ea8a1af0146103e5578063ecb70fb7146103ed578063f851a440146103fa578063fa2b9a681461040d57600080fd5b8063c45a01551461038c578063ca5f4282146103b3578063d63fa146146103da57600080fd5b8063a6f2ae3a116100d3578063a6f2ae3a14610336578063a95c07981461033e578063aa9a091214610352578063b0e21e8a1461036557600080fd5b8063879f9c9614610307578063a403eb2d14610319578063a60f68111461032157600080fd5b8063603daf9a116101665780636cc6cde1116101405780636cc6cde1146102ab5780636e9960c3146102d25780637150d8ae146102da57806378901583146102f357600080fd5b8063603daf9a146102655780636a1c00dc1461027c5780636a3b83551461028457600080fd5b806308551a53146101ae5780630b8712c3146101f25780631183dbed1461020a57806351aecca41461021e578063582f0e1614610253578063601a68381461025b575b600080fd5b6101d57f000000000000000000000000000000000000000000000000000000000000000081565b6040516001600160a01b0390911681526020015b60405180910390f35b6101fa610421565b60405190151581526020016101e9565b6001546101fa90600160a01b900460ff1681565b6102457f000000000000000000000000000000000000000000000000000000000000000081565b6040519081526020016101e9565b6101fa6106b9565b61026361074c565b005b6000546201000090046001600160a01b03166101d5565b610263610836565b6101d57f000000000000000000000000000000000000000000000000000000000000000081565b6101d57f000000000000000000000000000000000000000000000000000000000000000081565b6101d5610880565b6000546101d5906201000090046001600160a01b031681565b6001546101fa90600160b81b900460ff1681565b6000546101fa90610100900460ff1681565b610263610909565b610329610bda565b6040516101e99190611603565b610263610db4565b6001546101fa90600160b01b900460ff1681565b6102456103603660046116aa565b6111a8565b6102457f000000000000000000000000000000000000000000000000000000000000000081565b6101d57f000000000000000000000000000000000000000000000000000000000000000081565b6102457f000000000000000000000000000000000000000000000000000000000000000081565b60005460ff166101fa565b6102636111c9565b6000546101fa9060ff1681565b6001546101d5906001600160a01b031681565b6001546101fa90600160a81b900460ff1681565b60018054600091600160a01b90910460ff16151514801561044f575060018054600160a81b900460ff161515145b8015610468575060005460ff6101009091041615156001145b15610537576040516370a0823160e01b8152306004820152610523907f0000000000000000000000000000000000000000000000000000000000000000907f0000000000000000000000000000000000000000000000000000000000000000906001600160a01b038316906370a08231906024015b602060405180830381865afa1580156104fa573d6000803e3d6000fd5b505050506040513d601f19601f8201168201806040525081019061051e91906116d6565b61130d565b506000805460ff1916600190811790915590565b60018054600160a01b900460ff161515148015610561575060018054600160b01b900460ff161515145b801561057a575060005460ff6101009091041615156001145b156105f3576040516370a0823160e01b8152306004820152610523907f0000000000000000000000000000000000000000000000000000000000000000907f0000000000000000000000000000000000000000000000000000000000000000906001600160a01b038316906370a08231906024016104dd565b60018054600160a81b900460ff16151514801561061d575060018054600160b01b900460ff161515145b8015610636575060005460ff6101009091041615156001145b156106af576040516370a0823160e01b8152306004820152610523907f0000000000000000000000000000000000000000000000000000000000000000907f0000000000000000000000000000000000000000000000000000000000000000906001600160a01b038316906370a08231906024016104dd565b5060005460ff1690565b6040516370a0823160e01b815230600482015260009081906001600160a01b037f000000000000000000000000000000000000000000000000000000000000000016906370a0823190602401602060405180830381865afa158015610722573d6000803e3d6000fd5b505050506040513d601f19601f8201168201806040525081019061074691906116d6565b11905090565b336001600160a01b037f0000000000000000000000000000000000000000000000000000000000000000161461078157600080fd5b600154600160b01b900460ff161580156107a55750600154600160a81b900460ff16155b6107ae57600080fd5b60005460ff6101009091041615156001146107c857600080fd5b6000546040516370a0823160e01b8152306004820152610827917f0000000000000000000000000000000000000000000000000000000000000000916001600160a01b03620100009092048216918316906370a08231906024016104dd565b6000805460ff19166001179055565b336001600160a01b037f0000000000000000000000000000000000000000000000000000000000000000161461086b57600080fd5b6001805460ff60b81b1916600160b81b179055565b60007f00000000000000000000000000000000000000000000000000000000000000006001600160a01b0316638da5cb5b6040518163ffffffff1660e01b8152600401602060405180830381865afa1580156108e0573d6000803e3d6000fd5b505050506040513d601f19601f8201168201806040525081019061090491906116ef565b905090565b6000546201000090046001600160a01b03163314806109505750336001600160a01b037f000000000000000000000000000000000000000000000000000000000000000016145b806109835750336001600160a01b037f000000000000000000000000000000000000000000000000000000000000000016145b61098c57600080fd5b6000546201000090046001600160a01b03163303610a75576001805460ff60a81b1916600160a81b179055600054604080516001600160a01b0362010000909304831681527f0000000000000000000000000000000000000000000000000000000000000000831660208201527f0000000000000000000000000000000000000000000000000000000000000000909216908201527f000000000000000000000000000000000000000000000000000000000000000060608201527fd1adf00770f4f2c244fc8d5cb5241db27fe0b93caefb089fdd86309256788a8a9060800160405180910390a15b6001600160a01b037f0000000000000000000000000000000000000000000000000000000000000000163303610b26576001805460ff60a01b1916600160a01b90811791829055604080517f00000000000000000000000000000000000000000000000000000000000000006001600160a01b031681529190920460ff16151560208201527f2cd5f1b7c9746d6c7f12ba3cac10bb2ea2dd5ed664c19ecfbc25cb962b0d73fd910160405180910390a15b6001600160a01b037f0000000000000000000000000000000000000000000000000000000000000000163303610bd8576001805460ff60b01b1916600160b01b90811791829055604080517f00000000000000000000000000000000000000000000000000000000000000006001600160a01b031681529190920460ff16151560208201527fae19fbd29a5cc1375bcc48ea65089a54f7bfdff538fbcf979a0d75c072c324af91015b60405180910390a15b565b610be261154f565b610bea61154f565b6001600160a01b037f0000000000000000000000000000000000000000000000000000000000000000811682527f0000000000000000000000000000000000000000000000000000000000000000811660208301527f00000000000000000000000000000000000000000000000000000000000000001660408201527f0000000000000000000000000000000000000000000000000000000000000000606082015260028054610c9990611718565b80601f0160208091040260200160405190810160405280929190818152602001828054610cc590611718565b8015610d125780601f10610ce757610100808354040283529160200191610d12565b820191906000526020600020905b815481529060010190602001808311610cf557829003601f168201915b5050505050816080018190525060048054610d2c90611718565b80601f0160208091040260200160405190810160405280929190818152602001828054610d5890611718565b8015610da55780601f10610d7a57610100808354040283529160200191610da5565b820191906000526020600020905b815481529060010190602001808311610d8857829003601f168201915b505050505060c0820152919050565b600054610100900460ff1615610dc957600080fd5b6000546201000090046001600160a01b03163314801590610e135750336001600160a01b037f00000000000000000000000000000000000000000000000000000000000000001614155b610e1c57600080fd5b6000610e6b7f00000000000000000000000000000000000000000000000000000000000000007f00000000000000000000000000000000000000000000000000000000000000006127106111a8565b90506000610ebc7f00000000000000000000000000000000000000000000000000000000000000007f00000000000000000000000000000000000000000000000000000000000000006127106111a8565b90506000610eca8284611768565b90506000610ef8827f0000000000000000000000000000000000000000000000000000000000000000611780565b6040516323b872dd60e01b81529091506001600160a01b037f000000000000000000000000000000000000000000000000000000000000000016906323b872dd90610f4b90339030908690600401611797565b6020604051808303816000875af1158015610f6a573d6000803e3d6000fd5b505050506040513d601f19601f82011682018060405250810190610f8e91906117bb565b507f00000000000000000000000000000000000000000000000000000000000000006001600160a01b03166323b872dd33610fc7610880565b876040518463ffffffff1660e01b8152600401610fe693929190611797565b6020604051808303816000875af1158015611005573d6000803e3d6000fd5b505050506040513d601f19601f8201168201806040525081019061102991906117bb565b507f00000000000000000000000000000000000000000000000000000000000000006001600160a01b03166323b872dd33611062610880565b866040518463ffffffff1660e01b815260040161108193929190611797565b6020604051808303816000875af11580156110a0573d6000803e3d6000fd5b505050506040513d601f19601f820116820180604052508101906110c491906117bb565b506000805462010000338102610100600160b01b031990921691909117610100179182905560408051919092046001600160a01b0390811682527f0000000000000000000000000000000000000000000000000000000000000000811660208301527f000000000000000000000000000000000000000000000000000000000000000016918101919091527f000000000000000000000000000000000000000000000000000000000000000060608201527f93f7aa200698f7035ffdcd4e6bc9dd9caf7853d59c1465ed93ac8827b6ff5c229060800160405180910390a150505050565b6000816111b584866117dd565b6111bf91906117fc565b90505b9392505050565b336001600160a01b037f000000000000000000000000000000000000000000000000000000000000000016146111fe57600080fd5b60005460ff161561120e57600080fd5b600054610100900460ff161561122357600080fd5b6000805460ff191660011790556040516370a0823160e01b81523060048201527ffb87149f10f1ffda9c1df55fae0d68fe643c8be0790eec2f859205ed312cd68b907f0000000000000000000000000000000000000000000000000000000000000000907f0000000000000000000000000000000000000000000000000000000000000000906001600160a01b038216906370a0823190602401602060405180830381865afa1580156112da573d6000803e3d6000fd5b505050506040513d601f19601f820116820180604052508101906112fe91906116d6565b604051610bcf93929190611797565b604080516001600160a01b038416602482015260448082018490528251808303909101815260649091019091526020810180516001600160e01b031663a9059cbb60e01b17905261135f908490611364565b505050565b60006113b9826040518060400160405280602081526020017f5361666545524332303a206c6f772d6c6576656c2063616c6c206661696c6564815250856001600160a01b031661143b9092919063ffffffff16565b80519091501561135f57808060200190518101906113d791906117bb565b61135f5760405162461bcd60e51b815260206004820152602a60248201527f5361666545524332303a204552433230206f7065726174696f6e20646964206e6044820152691bdd081cdd58d8d9595960b21b60648201526084015b60405180910390fd5b60606111bf8484600085856001600160a01b0385163b61149d5760405162461bcd60e51b815260206004820152601d60248201527f416464726573733a2063616c6c20746f206e6f6e2d636f6e74726163740000006044820152606401611432565b600080866001600160a01b031685876040516114b9919061181e565b60006040518083038185875af1925050503d80600081146114f6576040519150601f19603f3d011682016040523d82523d6000602084013e6114fb565b606091505b509150915061150b828286611516565b979650505050505050565b606083156115255750816111c2565b8251156115355782518084602001fd5b8160405162461bcd60e51b8152600401611432919061183a565b6040518060e0016040528060006001600160a01b0316815260200160006001600160a01b0316815260200160006001600160a01b03168152602001600081526020016060815260200160608152602001606081525090565b60005b838110156115c25781810151838201526020016115aa565b838111156115d1576000848401525b50505050565b600081518084526115ef8160208601602086016115a7565b601f01601f19169290920160200192915050565b60208152600060018060a01b0380845116602084015280602085015116604084015250604083015161164060608401826001600160a01b03169052565b5060608301516080830152608083015160e060a08401526116656101008401826115d7565b905060a0840151601f19808584030160c086015261168383836115d7565b925060c08601519150808584030160e0860152506116a182826115d7565b95945050505050565b6000806000606084860312156116bf57600080fd5b505081359360208301359350604090920135919050565b6000602082840312156116e857600080fd5b5051919050565b60006020828403121561170157600080fd5b81516001600160a01b03811681146111c257600080fd5b600181811c9082168061172c57607f821691505b60208210810361174c57634e487b7160e01b600052602260045260246000fd5b50919050565b634e487b7160e01b600052601160045260246000fd5b6000821982111561177b5761177b611752565b500190565b60008282101561179257611792611752565b500390565b6001600160a01b039384168152919092166020820152604081019190915260600190565b6000602082840312156117cd57600080fd5b815180151581146111c257600080fd5b60008160001904831182151516156117f7576117f7611752565b500290565b60008261181957634e487b7160e01b600052601260045260246000fd5b500490565b600082516118308184602087016115a7565b9190910192915050565b6020815260006111c260208301846115d756fea2646970667358221220762bf597b47153bc766e02abb57d76829d5b050517eeca78c41ff0a11ca1462864736f6c634300080d0033",
    "linkReferences": {}
  }
}